:10000000B2C20000E1C20000DFC20000DDC2000099
:10001000DBC20000D9C20000D7C20000D5C2000078
:10002000D3C20000D1C20000CFC20000CDC2000088
:10003000CBC20000C9C20000C7C20000C5C2000098
:10004000C3C20000C1C20000BFC20000BDC20000A8
:10005000BBC20000B9C20000B7C20000F2C6000077
:10006000B3C2000089C600005EC60000ADC2000039
:10007000ABC20000A9C20000A7C20000A5C20000D8
:10008000A3C20000A1C200009FC200009DC20000E8
:100090009BC2000099C2000097C2000095C20000F8
:1000A00093C2000091C200008FC200008DC2000008
:1000B0008BC2000089C2000087C2000085C2000018
:1000C00083C2000081C200007FC200007DC2000028
:1000D0007BC2000079C2000077C2000075C2000038
:1000E00073C2000068046B045A045E046404A20432
:1000F0006F04730479047D04810487048B048F04E6
:10010000A204950499049D04556E6B6E6F776E2062
:100110006572726F720041204D4946415245205030
:1001200049434320726573706F6E6465642077691C
:100130007468204E414B2E00546865204352435F43
:100140004120646F6573206E6F74206D6174636805
:100150002E00496E76616C696420617267756D6509
:100160006E742E00496E7465726E616C20657272D9
:100170006F7220696E2074686520636F64652E203D
:1001800053686F756C64206E6F7420686170706561
:100190006E2E004120627566666572206973206E5E
:1001A0006F742062696720656E6F7567682E0054F2
:1001B000696D656F757420696E20636F6D6D756E06
:1001C00069636174696F6E2E00436F6C6C69737341
:1001D000696F6E2064657465637465642E00457292
:1001E000726F7220696E20636F6D6D756E696361E9
:1001F00074696F6E2E00537563636573732E0055BB
:100200006E6B6E6F776E20747970650053414B2072
:10021000696E64696361746573205549442069732C
:10022000206E6F7420636F6D706C6574652E004D69
:10023000494641524520544E5033585858004D4974
:100240004641524520506C7573004D494641524518
:1002500020556C7472616C69676874206F722055E8
:100260006C7472616C696768742043004D49464143
:10027000524520344B42004D494641524520314BB6
:1002800042004D4946415245204D696E692C20334C
:100290003230206279746573005049434320636FA4
:1002A0006D706C69616E7420776974682049534F72
:1002B0002F49454320313830393220284E464329D2
:1002C000005049434320636F6D706C69616E742008
:1002D000776974682049534F2F494543203134349E
:1002E00034332D3400000020002300260029002C88
:1002F000002F003200000100000301060109010087
:10030000000A0B02090C0D0E08070304010000008F
:1003100000000000000000000000000000000000DD
:10032000000000000000000000000012111000009A
:1003300000000000000000000000000000000000BD
:1003400000000000004D49464152455F57726974F4
:10035000652829206661696C65643A2000202E2E8C
:100360002E0057726974696E672064617461206938
:100370006E746F20626C6F636B20004D4946415272
:10038000455F526561642829206661696C65643A3D
:1003900020005043445F41757468656E7469636101
:1003A00074652829206661696C65643A200041758E
:1003B0007468656E7469636174696E672E2E2E2E83
:1003C0004E65787420547261696C657220626C6F3E
:1003D000636B3A20005043445F41757468656E74E6
:1003E00069636174652829206661696C65643A20D7
:1003F0000041757468656E7469636174696E672E17
:100400002E2E2E547261696C657220626C6F636B64
:100410003A2000546869732073616D706C65206FB9
:100420006E6C7920776F726B732077697468204DDA
:10043000494641524520436C61737369632063618F
:100440007264732E005049434320747970653A20DA
:100450000043617264205549443A0054686973202E
:1004600073616D706C65206F6E6C7920776F726B45
:10047000732077697468204D494641524520436C8A
:1004800061737369632063617264732E0050494322
:100490004320747970653A200043617264205549A5
:1004A000443A0000002200250028002B002E0031D5
:1004B00000340002010000050108010B01000021C9
:1004C00000240027002A002D003000330001010025
:1004D00000040107010A01050505050705080808CC
:1004E00008020202020A0A080804040404010101C5
:1004F00001010101010303030303030303040707CD
:10050000070C0C0C0C0C0C0C0C020202020606066A
:1005100006060606060B0B0B0B0B0B0B0B01021052
:10052000202008081020401020408002010201080D
:1005300004020101020408102040808040201008BD
:100540000402018004020180402010080402010816
:100550000402010102040810204080010204081076
:10056000204080000E0F11241FBECFEFD1E2DEBF6E
:10057000CDBF00E00CBF13E0A0E0B2E0EAE4FFE191
:1005800000E00BBF02C007900D92AE38B107D9F75B
:1005900024E0AEE8B3E001C01D92AA39B207E1F74A
:1005A00012E0C3EBD2E000E006C021970109802FE2
:1005B000FE010E94530FC23BD10780E00807A9F754
:1005C0000E946B0B0C94A30F1BCD2FB7F894809156
:1005D0009D0390919E03A0919F03B091A0032FBF14
:1005E0008093AF039093B003A093B103B093B20391
:1005F000E091A703F091A8030084F185E02D87EA3C
:1006000093E0199597FF26C02FB7F89480919D032A
:1006100090919E03A0919F03B091A0032FBF4091A2
:10062000AF035091B0036091B1037091B203841B8A
:10063000950BA60BB70B4091AB035091AC036091A7
:10064000AD037091AE0384179507A607B70780F234
:100650008FEF9FEF0895CF92DF92EF92FF920F936B
:100660001F93CF93DF936C017A018B01C0E0D0E040
:10067000CE15DF0589F0D8016D918D01D601ED9180
:10068000FC910190F081E02DC6011995892B11F4A0
:100690007E0102C02196ECCFC701DF91CF911F915F
:1006A0000F91FF90EF90DF90CF900895FC01918D16
:1006B000828D981761F0828DDF01A80FB11D5D96C4
:1006C0008C91928D9F5F9F73928F90E008958FEF32
:1006D0009FEF0895FC01918D828D981731F0828DE6
:1006E000E80FF11D858D90E008958FEF9FEF08953D
:1006F000FC01918D228D892F90E0805C9F4F821BA1
:1007000091098F739927089587EA93E0F1DF21E03B
:10071000892B09F420E0822F0895FC01848DDF01EC
:10072000A80FB11DA35ABF4F2C91848D90E0019664
:100730008F739927848FA689B7892C93A089B18953
:100740008C9180648C93938D848D981306C002885D
:10075000F389E02D80818F7D80830895EF92FF9251
:100760000F931F93CF93DF93EC0181E0888F9B8DD4
:100770008C8D981305C0E889F989808185FD23C097
:10078000F62E0B8D10E00F5F1F4F0F731127E02E19
:100790008C8DE8120BC00FB607FCFACFE889F989F7
:1007A000808185FFF5CFCE01B8DFF2CF8B8DFE01C2
:1007B000E80FF11DE35AFF4FF0820B8FEA89FB89A6
:1007C0008081806207C0EE89FF896083E889F989AA
:1007D00080818064808381E090E0DF91CF911F91E0
:1007E0000F91FF90EF900895CF93DF93EC01888DE8
:1007F0008823C1F0EA89FB89808185FD05C0A8892D
:10080000B9898C9186FD0EC00FB607FCF5CF8081AB
:1008100085FFF2CFA889B9898C9185FFEDCFCE01F4
:100820007CDFE8CFDF91CF91089580E090E0892BC5
:1008300019F06ADF811125C080E090E0892B41F03A
:1008400080E090E0892B21F00E94000081111CC003
:1008500080E090E0892B41F080E090E0892B21F04E
:100860000E940000811113C080E090E0892BA1F06C
:1008700080E090E0892B81F00E94000081110AC085
:1008800008950E940000D8CF0E940000E1CF0E948E
:100890000000EACF0C940000089590E0FC0131972D
:1008A000E231F10508F04EC08827EE58FF4F8F4F18
:1008B0000C94530F809180008F7703C0809180004B
:1008C0008F7D80938000089580918000877FF9CF8D
:1008D00084B58F7702C084B58F7D84BD08958091E3
:1008E000B0008F7703C08091B0008F7D8093B000FF
:1008F0000895809190008F7707C0809190008F7D40
:1009000003C080919000877F80939000089580912C
:10091000A0008F7707C08091A0008F7D03C08091D9
:10092000A000877F8093A0000895809120018F7799
:1009300007C0809120018F7D03C080912001877FB7
:100940008093200108953FB7F89480918F03909190
:100950009003A0919103B091920326B5A89B05C086
:100960002F3F19F00196A11DB11D3FBFBA2FA92F2E
:10097000982F8827820F911DA11DB11DBC01CD01AB
:1009800042E0660F771F881F991F4A95D1F7089597
:100990008F929F92AF92BF92CF92DF92EF92FF928F
:1009A0006B017C01D0DF4B015C01C114D104E10477
:1009B000F104E9F0C8DFDC01CB0188199909AA0923
:1009C000BB09883E9340A105B10578F321E0C21A26
:1009D000D108E108F10888EE880E83E0981EA11C7A
:1009E000B11CC114D104E104F10421F7DECFFF9062
:1009F000EF90DF90CF90BF90AF909F908F90089531
:100A00008530F1F068F48230A9F018F4813039F1C2
:100A100023C0833091F08430F9F487E792E00895A1
:100A20008730A1F080F08830A1F08F3FA9F48CE0EE
:100A300092E0089589E992E0089582E892E00895AD
:100A40008CE692E008958AE492E008958EE392E0C5
:100A500008958FE292E008958FEF91E0089581EC80
:100A600092E008958430D9F050F4813091F030F163
:100A7000823091F08330F9F48FEA91E00895863066
:100A8000A1F080F08730A1F08F3FA9F486E191E0DA
:100A900008958EED91E0089589EC91E0089583E941
:100AA00091E0089584E691E0089582E591E008954B
:100AB00088E391E0089588E091E0089586EF91E061
:100AC00008958F92AF92CF92DF92EF92FF920F93A1
:100AD0001F93CF93DF93CDB7DEB72C970FB6F89463
:100AE000DEBF0FBECDBF90E699838A83DE011396E9
:100AF000E1EAF3E086E08E0F91919D938E13FCCF97
:100B0000E0918C04F0E0E757FB4FDE011996CE012F
:100B10000D9621912D93A817B907D9F7812CA12CF7
:100B2000C12CD12CE12CF12C00E010E02CE0AE0126
:100B30004F5F5F4F60E18EE002D32C960FB6F894C2
:100B4000DEBF0FBECDBFDF91CF911F910F91FF9000
:100B5000EF90DF90CF90AF908F9008958F92AF92EB
:100B6000CF92DF92EF92FF920F931F93CF93DF9379
:100B7000CDB7DEB764970FB6F894DEBF0FBECDBF1A
:100B8000162FE62EF12CA701BC01CE0101960E9482
:100B90005F0F41E050E04C0F5D1F4E0D5F1D612F58
:100BA000CE01019698D2811123C082E18C8B1B8AE1
:100BB00022E0210F812CA12CCE0143966C010196DD
:100BC0007C018E010F5F1F4FA80160E38CE0B7D25C
:100BD00081110EC08C89813051F48B89843039F4B5
:100BE00081E099819A3009F480E0819501C081E02B
:100BF00064960FB6F894DEBF0FBECDBFDF91CF91E4
:100C00001F910F91FF90EF90DF90CF90AF908F905A
:100C100008950E945B0F6115710579F0FB01019049
:100C20000020E9F73197AF01461B570BDC01ED912E
:100C3000FC910280F381E02D199480E090E008950A
:100C40004F925F926F927F92EF92FF920F931F935A
:100C5000CF93DF93CDB7DEB7A1970FB6F894DEBF81
:100C60000FBECDBF7C01FA01CB0119A2223008F4DE
:100C70002AE08E010F5D1F4F422E512C612C712CEA
:100C8000BF01A30192010E94680FF901CA0101503E
:100C900011096A3014F4605D01C0695CD8016C937D
:100CA000232B242B252B61F7B801C701B4DFA196B4
:100CB0000FB6F894DEBF0FBECDBFDF91CF911F916D
:100CC0000F91FF90EF907F906F905F904F900895FD
:100CD000EF92FF920F931F93CF93DF93162F082F5E
:100CE000EC018C2F801B8117B8F47E018881803144
:100CF00018F06DE473E002C061E572E087EA93E00A
:100D00008ADF2196F701408150E060E070E020E149
:100D100087EA93E095DFE5CFDF91CF911F910F91A7
:100D2000FF90EF9008951F920F920FB60F9211242B
:100D30000BB60F922F933F934F935F936F937F93D5
:100D40008F939F93AF93BF93EF93FF9387EA93E0C3
:100D5000E4DCFF91EF91BF91AF919F918F917F91D3
:100D60006F915F914F913F912F910F900BBE0F901C
:100D70000FBE0F901F9018951F920F920FB60F92F3
:100D800011240BB60F922F938F939F93EF93FF93A2
:100D9000E091B703F091B8038081E091BD03F09139
:100DA000BE0382FD12C090818091C0038F5F8F735C
:100DB0002091C103821751F0E091C003F0E0E955A2
:100DC000FC4F958F8093C00301C08081FF91EF910C
:100DD0009F918F912F910F900BBE0F900FBE0F9090
:100DE0001F9018951F93CF93DF93282F30E0F901C0
:100DF000E150FD4F8491F901E35EFA4FD491F9017E
:100E0000E952FB4FC491CC23C1F0162F811145DD6F
:100E1000EC2FF0E0EE0FFF1FED55FB4FA591B491C5
:100E20008FB7F894111105C09C91ED2FE095E9233F
:100E300002C0EC91ED2BEC938FBFDF91CF911F910E
:100E400008951F920F920FB60F9211242F933F9384
:100E50008F939F93AF93BF9380919D0390919E0337
:100E6000A0919F03B091A00330918E0323E0230F44
:100E70002D3720F40196A11DB11D05C026E8230FD2
:100E80000296A11DB11D20938E0380939D03909324
:100E90009E03A0939F03B093A00380918F03909132
:100EA0009003A0919103B09192030196A11DB11DF1
:100EB00080938F0390939003A0939103B093920338
:100EC000BF91AF919F918F913F912F910F900FBE46
:100ED0000F901F90189508958EBD00000DB407FE69
:100EE000FDCF8EB508958CBD9DBD0895CF92DF9244
:100EF000FF920F931F93CF93DF931F92CDB7DEB76F
:100F0000082F162F83E590E07983EDDF60E0809174
:100F1000980468DF82E1E0DFF12EC12E7981D72EBF
:100F20008C2D8F19801728F4F60181916F01D4DF81
:100F3000F7CF61E08091980455DF0F90DF91CF915A
:100F40001F910F91FF90DF90CF90C5CFE7EAF3E0BC
:100F5000A089B18982E08C93A485B5851C92A68571
:100F6000B7858FEC8C93108EA489B58986E08C931D
:100F7000A289B3898C9180618C93A289B3898C9169
:100F800088608C93A289B3898C9180688C93028845
:100F9000F389E02D80818F7D8083089563E672E080
:100FA00087EA93E038CECF93DF93BC0187EA93E0E2
:100FB00032DEEC01F3DF8C0F9D1FDF91CF9108959E
:100FC0000F931F93CF93DF93082F162F83E590E0A5
:100FD0008ADFCCE8D4E060E08C8504DF802F8E7758
:100FE0007BDF812F79DF61E08C85FCDEDF91CF91A3
:100FF0001F910F9170CF0F931F93CF93C82F83E54D
:1010000090E071DF0CE814E060E0F8018485EADE2E
:101010008C2F8E77806860DF80E05EDFC82F61E014
:10102000F8018485DFDE57DF8C2FCF911F910F9160
:101030000895CF93C82FDFDF682F60688C2FCF9182
:10104000BFCF90E0FC01E35EFA4F2491FC01E9522E
:10105000FB4F8491882399F090E0880F991FFC0141
:10106000E354FB4FA591B491FC01ED55FB4F8591E5
:1010700094918FB7F894EC91E22BEC938FBF089585
:101080000F931F93CF93DF938C01C0E0D0E0F80162
:10109000EC0FFD1F6491662371F0E091A703F091BE
:1010A000A8030190F081E02D87EA93E01995892B40
:1010B00011F02196ECCFCE01DF91CF911F910F91CE
:1010C0000895CF93DF93DCDFEC0168DF8C0F9D1F69
:1010D000DF91CF910895EF92FF920F931F93CF93DB
:1010E000DF937C01C62F8A0160E082E069DF64E063
:1010F0008AE066DF84E19DDFB7018C2FF7DE63E0D5
:1011000082E05EDFC8E8D3E18AE075DF82FD04C0DB
:101110002197D1F783E00CC060E082E051DF84E4E6
:101120006ADFF801808382E466DFF801818380E072
:10113000DF91CF911F910F91FF90EF9008952F9223
:101140003F924F925F926F927F928F929F92AF9257
:10115000BF92CF92DF92EF92FF920F931F93CF93A4
:10116000DF9300D0CDB7DEB7982E762E2A01C114BA
:10117000D10419F0F601608101C060E0662EF0E153
:10118000AF9E600C112460E082E02B8319DF6FE7D3
:1011900088E016DF84E14DDFB2012B81822FA6DECD
:1011A000662D8AE10DDF692D82E00ADF8CE098125E
:1011B00002C08AE13EDF90ED492E97E0592E88E08B
:1011C0001ADF982F972139F480FD9CC0E1E04E1A78
:1011D0005108A9F797C08CE00EDF382E837109F013
:1011E00093C00115110509F45BC0E114F10409F481
:1011F00057C084E100DF982EF7018081891508F43B
:1012000085C09082992009F442C083E590E06BDEAE
:1012100060E080919804E6DD9A9482E95DDE202EFC
:10122000380144244394512C862D8219891518F5D0
:10123000811119C0AA20B9F08A2DB12C883048F448
:101240009201082E01C0220F0A94EAF7B22A8F5F9A
:10125000F5CF82E941DE2B2D2095F8019081922374
:101260008B21892B03C082E937DEF3018083FFEFF6
:101270006F1A7F0AD9CF5801A90CB11C80E02CDE6F
:10128000F501808361E080919804ACDD24DE88E183
:10129000B2DE8770B82EC114D10411F0F60180833C
:1012A00033FC36C001151105A9F1E114F10491F1E7
:1012B000882081F1F7016081613021F4F4E0BF12F0
:1012C00003C01EC0623010F487E025C0B110FCCF0F
:1012D0006250AE014F5F5F4FC801FDDE81111BC040
:1012E000F7018081080F111DF801329790818981E3
:1012F0009813EACF319690818A819813E5CF0AC07E
:101300008FEF09C083E007C081E005C084E003C01F
:1013100082E001C080E00F900F900F90DF91CF919D
:101320001F910F91FF90EF90DF90CF90BF90AF9003
:101330009F908F907F906F905F904F903F902F90F5
:1013400008958F92AF92CF92DF92EF92FF920F9318
:101350001F93CF93DF9300D01F92CDB7DEB780E508
:1013600089831A82AE014D5F5F4F62E0CE01019624
:10137000B2DE811116C0812CA12CC12CD12CE12C04
:10138000F12C00E010E024E0AE014F5F5F4F60E31E
:101390008CE0D5DE833021F0811103C081E001C0F3
:1013A00080E00F900F900F900F90DF91CF911F91E1
:1013B0000F91FF90EF90DF90CF90AF908F900895B6
:1013C0001F93CF93DF931F92CDB7DEB7182F69839A
:1013D00012DE698160956823812F0F90DF91CF9194
:1013E0001F91EECD2F923F924F925F926F927F921C
:1013F0008F929F92AF92BF92CF92DF92EF92FF9225
:101400000F931F93CF93DF93CDB7DEB72C970FB613
:10141000F894DEBF0FBECDBF60E88CE1D1DF992428
:10142000939444244394512C22E0921651F033E0DB
:10143000931661F081E09812E5C083E98983B12CAD
:1014400009C085E9898353E0B52E04C087E9898303
:1014500046E0B42E312C33E0232E90E239121BC02B
:10146000E0E7EA839C818B8189279D8189279E8182
:1014700089278F83AE01485F5F4F67E0CE010196F9
:101480002ADE8111C4C01B862A869E01295F3F4F38
:10149000390129E01EC0932D97709B87432D4595F8
:1014A0004595459582E0840F292F30E1839F200DDB
:1014B00011242A8321E0911101C020E0280F662425
:1014C0006394712C6C0E7D1E680E711C87E0841B6A
:1014D0008A87AB846A2D6295607F6A0D8AE12C87CA
:1014E0006FDD812CCE010B966C01FE013A967F01D7
:1014F00083012C85AE014F5F5F4F60E38CE01FDE00
:10150000823089F58CE177DD85FD7AC08F7109F431
:1015100080E2482F50E0632D330C770B641775077A
:101520000CF070C0382ECA01019787709927242FBC
:1015300025952595259541E0420F21E0009709F476
:1015400020E0240FE1E0F0E0EC0FFD1FE20FF11DC1
:10155000920102C0220F331F8A95E2F7C9019081E0
:10156000892B80837ACF811152C030E2331619F073
:1015700020E2322E75CF8B81883819F443E023E0C6
:1015800002C042E024E080E090E06B2D70E0FC01BE
:10159000E60FF71FE457FB4F542F580FA1E0B0E0C0
:1015A000AC0FBD1FA50FB11D5C9151830196821731
:1015B00070F38A85833041F58B85811125C0AE019A
:1015C0004D5F5F4F61E0C30186DD811120C09B81CB
:1015D000F301818198131AC09C818281981316C0EF
:1015E000808182FF02C093941FCF80939704892D3E
:1015F000880F382F390D3F5F30938C0480E007C08F
:1016000082E005C085E003C081E001C087E02C9640
:101610000FB6F894DEBF0FBECDBFDF91CF911F9103
:101620000F91FF90EF90DF90CF90BF90AF909F9081
:101630008F907F906F905F904F903F902F90089584
:101640008F92AF92CF92DF92EF92FF920F931F9300
:10165000CF93DF9300D01F921F92CDB7DEB782E009
:101660008D8386E28C8360E88CE1AADE87E08B8341
:10167000812CA12CCE0103966C0102967C018E0177
:101680000F5F1F4F21E0AE014C5F5F4F60E38CE0C6
:1016900056DD811109C08D81823029F481E09B8162
:1016A000911102C006C081E091E0823019F090E013
:1016B00001C091E0892F0F900F900F900F900F9025
:1016C000DF91CF911F910F91FF90EF90DF90CF901E
:1016D000AF908F900895CF93DF93CDB7DEB7AD97DE
:1016E0000FB6F894DEBF0FBECDBF789484B582608C
:1016F00084BD84B5816084BD85B5826085BD85B5B6
:10170000816085BD80916E00816080936E00109233
:1017100081008091810082608093810080918100AE
:10172000816080938100809180008160809380003F
:101730008091B10084608093B1008091B00081609D
:101740008093B0008091910082608093910080919D
:1017500091008160809391008091900081608093DE
:1017600090008091A10082608093A1008091A100EF
:1017700081608093A1008091A00081608093A0008F
:1017800080912101826080932101809121018160FB
:1017900080932101809120018160809320018091BC
:1017A0007A00846080937A0080917A0082608093CE
:1017B0007A0080917A00816080937A0080917A002B
:1017C000806880937A001092C10010928804109271
:1017D000890410928A0410928B041092460410928D
:1017E0004704109248041092490460ED77E080E0CD
:1017F00090E0CED887EA93E09093870480938604A4
:10180000A5DB2FB7F89480919D0390919E03A09142
:101810009F03B091A0032FBF809346049093470489
:10182000A0934804B093490464E572E08091860473
:1018300090918704F0D96AE070E080E090E0A8D849
:1018400081E080935A048DE0FCDB80DB1FB7F894C5
:1018500080919303811120C0ECE0F5E08491E2E5F2
:10186000F5E09491E82FF0E0EE0FFF1FE354FB4FFB
:10187000A591B491EC91E92319F461E085E3B2DA22
:1018800085E3DFDB8CB580618CBD8CB580648CBD5D
:1018900084E3D7DB83E3D5DB809193038F5F809371
:1018A00093031FBF80919804CCDB61E08091980482
:1018B00099DA80919904C5DB2091990430E0F9010F
:1018C000E150FD4F8491F901E35EFA4F1491F90163
:1018D000E952FB4FB490BB2079F081110E944D0476
:1018E000EB2DF0E0EE0FFF1FEB51FD4FA591B491F2
:1018F000EC91E12309F0EDC061E08091990472DA86
:1019000062E370E080E090E043D860E884E558DB73
:1019100069EA86E555DB63E088E552DB68EE8AE537
:101920004FDB60E48AE24CDB6DE382E249DB88E274
:1019300062DB982F9370933021F0682F636088E208
:101940003FDB8FEF8093A1038093A2038093A303D7
:101950008093A4038093A5038093A60310929A0317
:1019600086E692E020DB80E892E01DDB85EA92E0EB
:101970001ADB89EC92E017DB11DB87EE92E013DBD8
:1019800086EF92E010DB3E0123E1620E711C58DE0F
:10199000882309F438C026DD811135C080918D047B
:1019A0008093960380918E048093970380918F0497
:1019B00080939803809190048093990389E994E03F
:1019C0005FDB60918C048DE894E082D9E7DA8DE8E2
:1019D00094E056DBE0919704EF77E13428F4F0E0EF
:1019E000E050FE4F108101C010E0812F09D869DB63
:1019F0001350133020F08BE594E063DB04C0A1DCCE
:101A000068E080E1DDDC87EA93E00E947803181645
:101A100019060CF05BC00E94E502FC0197FD11C0A5
:101A20008D32910591F0C0970A9778F0E091A70365
:101A3000F091A8030680F781E02D87EA93E01995DD
:101A4000EACF80E090E0DC012DC020E030E0A90189
:101A500010E0E130F10509F0C0C1E091A703F09179
:101A6000A8030680F781E02D87EA93E02AA73BA729
:101A70004CA75DA719950E94E502FC01C0972AA515
:101A80003BA54CA55DA50A9720F3E130F10509F3CC
:101A9000112309F4C0C188279927DC01821B930B0D
:101AA000A40BB50B90939C0380939B03AC01BD01E9
:101AB000662777272AE087EA93E0C2D86FDA8BE0BF
:101AC00093E071DA80919A03882389F010929A0347
:101AD0005ECF6FE082E074DA62E370E080E090E075
:101AE0000E94C80482E087DA84FDFCCF0ECF2091EB
:101AF0009B0330919C033FA32EA380E1F30111923D
:101B00008A95E9F7809196038B8B809197038C8B54
:101B1000809198038D8B809199038E8B3F8B288FBA
:101B200082E18DA38DDD811103C061E08DE05AD982
:101B300059DC8111C7CF61E08DE054D964EF71E0C9
:101B400080E090E00E94C80460E08DE04BD964EF33
:101B500071E080E090E00E94C80481E594E090DAB2
:101B600060918C048DE894E0B3D818DA85E494E0B1
:101B700087DAE0919704EF77E13428F4F0E0E05061
:101B8000FE4F108101C010E0812F0E94000599DAFC
:101B90008DEF810F833018F083E194E0ADC01330F6
:101BA00019F480E491E007C0143019F480E094E067
:101BB00002C080E090E1909395038093940320907D
:101BC00094033090950381EF93E07BDA2AE04BE0B9
:101BD00050E060E070E087EA93E032D8DFD98BE034
:101BE0000E946105182F81110EC094E0369427944D
:101BF0009A95E1F7C101019799A788A72BE0922E4A
:101C000038E0B32E44C085ED93E072C06DE373E01D
:101C100087EA93E000D82B2C312C412C512C2AE060
:101C2000B201A10187EA93E00BD8B8D98DA1823126
:101C300008F464C090E39983BA82AE014D5F5F4FB0
:101C400062E0CE01019647DA8111C5C088248394F1
:101C5000A12CC12CD12CFE01B5967F018E010F5F06
:101C60001F4F24E0A80160E38CE069DA182F81118E
:101C700046C08981882309F44AC08DE593E093D951
:101C8000B394FE0131961192E615F705E1F78B2D1D
:101C900090E0E8A5F9A58E179F0708F088C0B91055
:101CA000B5CF86E293E07FD94B2D50E060E070E045
:101CB0002AE087EA93E00E94200670D984E0982EFB
:101CC0009B0CB3948EEA93E0FCD9492D50E060E080
:101CD00070E02AE087EA93E00E9420065FD9892D10
:101CE0000E946105182F882309F490CF82E993E0C0
:101CF000C7D9812F0E943205E4D9E4CE14E08BE7E6
:101D000093E0BED9812F0E943205DBD950C08A8171
:101D10008111B3CF8B818111B0CF8C818111ADCF77
:101D20008D818111AACF8E818111A7CF82E693E0A8
:101D3000A7D92AE0B201A10187EA93E00E94200618
:101D40008DE593E0BED96FE473E087EA93E00E94EB
:101D50000B062EA13FA1A90160E070E02AE087EA0E
:101D600093E00E9420061AD960E1C3010E94680630
:101D700080EA8BA3BCA262E0CE0183960E94AE05EE
:101D8000182F811105C060E1C3010E94AE05182F14
:101D9000112339F085E493E073D9812F0E94320535
:101DA00090D9FE0131961192E615F705E1F7C9DAEF
:101DB00068E080E105DB1092960310929703109281
:101DC000980310929903EAD88AE693E0ECD881E070
:101DD00080939A0377CE182F92CFED32F105C9F098
:101DE000CF01C0970A9708F038CEAAE0B0E092D0B1
:101DF0004F01FF0FAA08BB08DC01CB01880D991D1C
:101E0000AA1DBB1D9C01AD01205331094109510997
:101E100024CE11E022CEDA01C90144CEE7EAF3E094
:101E20001382128288EE93E0A0E0B0E08483958371
:101E3000A683B78385E492E09183808385EC90E06C
:101E40009587848784EC90E09787868780EC90E084
:101E5000918B808B81EC90E0938B828B82EC90E075
:101E6000958B848B86EC90E0978B868B118E128EEF
:101E7000138E148EE4E4F4E0168217821086118625
:101E8000128613861486158616861786108A118A7E
:101E9000128A138A148A158AECE8F4E085E38487B1
:101EA00085E085870895EE0FFF1F881F8BBF079081
:101EB000F691E02D199481E090E0F89444C0FB0184
:101EC000DC0102C001900D9241505040D8F70895B6
:101ED000A1E21A2EAA1BBB1BFD010DC0AA1FBB1F2E
:101EE000EE1FFF1FA217B307E407F50720F0A21BA0
:101EF000B30BE40BF50B661F771F881F991F1A940D
:101F000069F760957095809590959B01AC01BD0136
:101F1000CF01089509D0A59F900DB49F900DA49F67
:101F2000800D911D11240895A29FB001B39FC0019F
:101F3000A39F700D811D1124911DB29F700D811DF5
:0A1F40001124911D0895F894FFCFBD
:101F4A0006080000FF000000040300000000000073
:101F5A000707000000000000050000000000000064
:101F6A000100000000000000000000000000000066
:101F7A000000000000000000000000000000000057
:101F8A000200000000AE032B03780356036A03F431
:101F9A0003203000564D4450565F317C315F564D18
:101FAA004450560D0A005374657020313A204C6132
:101FBA00792063617264206F6E20726669642E00F4
:101FCA005374657020323A20446967697420726FCD
:101FDA006F6D206E756D626572206F6E207365720B
:101FEA0069616C2E005374657020333A204C617914
:101FFA00206D617374657220616E64207761697403
:10200A0020736176696E672E005374657020343AC6
:10201A002052657065617420666F7220656163681D
:10202A0020636172642E0057616974696E67204388
:10203A006172642E2E00496E7365727420726F6F1E
:10204A006D206E756D6265723A2000576169746918
:10205A006E67204D617374657220666F72207361BA
:10206A0076652E2E2E0054726F7661746F2074720C
:10207A0061696C657220626C6F636B2000536F6ECE
:10208A006F206E656C20626C6F63636F3A2000523A
:10209A006F6F6D204E756D6265723A2000626C6FCB
:1020AA0063636F207069656E6F004C6F61642063B3
:1020BA006F6D706C6574652E2E2E506C656173653C
:0E20CA002072656D6F766520636172640000A0
:00000001FF
