:10000000ABC10000DAC10000D8C10000D6C10000B9
:10001000D4C10000D2C10000D0C10000CEC1000098
:10002000CCC100000C9497090C9497090C94970983
:10003000C4C10000C2C10000C0C10000BEC10000B8
:10004000BCC10000BAC10000B8C10000B6C10000C8
:10005000B4C10000B2C10000B0C100007DC5000005
:10006000ACC100000AC40000DFC30000A6C100004C
:10007000A4C10000A2C10000A0C100009EC10000F8
:100080009CC100009AC1000098C1000096C1000008
:1000900094C1000092C1000090C100008EC1000018
:1000A0008CC100008AC1000088C1000086C1000028
:1000B00084C1000082C1000080C100007EC1000038
:1000C0007CC100007AC1000078C1000076C1000048
:1000D00074C1000072C1000070C100006EC1000058
:1000E0006CC10000F002F302E202E602EC022A0315
:1000F000F702FB020103050309030F0313031703B0
:100100002A031D032103250300000A0B02090C0D1D
:100110000E080703040100000000000000000000BA
:1001200000000000000000000000000000000000CF
:10013000000000001211100000000000000000008C
:1001400000000000000000000000000000000000AF
:100150002100240027002A002D0030003300010177
:100160000000040107010A01556E6B6E6F776E2067
:10017000747970650053414B20696E6469636174E2
:10018000657320554944206973206E6F7420636F36
:100190006D706C6574652E004D4946415245205482
:1001A0004E5033585858004D494641524520506CE6
:1001B0007573004D494641524520556C7472616C0F
:1001C00069676874206F7220556C7472616C69671E
:1001D00068742043004D494641524520344B42004B
:1001E0004D494641524520314B42004D494641520E
:1001F00045204D696E692C20333230206279746558
:1002000073005049434320636F6D706C69616E7475
:1002100020776974682049534F2F4945432031386E
:1002200030393220284E4643290050494343206349
:100230006F6D706C69616E742077697468204953C2
:100240004F2F4945432031343434332D3400546822
:1002500069732073616D706C65206F6E6C792077A7
:100260006F726B732077697468204D49464152451F
:1002700020436C61737369632063617264732E0041
:100280005049434320747970653A20004361726499
:10029000205549443A0000002200250028002B0088
:1002A0002E003100340002010000050108010B019D
:1002B000000020002300260029002C002F0032001F
:1002C00000010000030106010901050505050705F8
:1002D00008080808020202020A0A080804040404C2
:1002E00001010101010101010303030303030303EE
:1002F000040707070C0C0C0C0C0C0C0C020202027D
:1003000006060606060606060B0B0B0B0B0B0B0B65
:100310000102102020080810204010204080020117
:1003200002010804020101020408102040808040FC
:1003300020100804020180040201804020100804FB
:100340000201080402010102040810204080010299
:10035000040810204080E81511241FBECFEFD1E221
:10036000DEBFCDBF00E00CBF13E0A0E0B2E0EAE9E1
:10037000F0E300E00BBF02C007900D92AA34B10772
:10038000D9F725E0AAE4B3E001C01D92A637B20771
:10039000E1F711E0CCEAD1E000E006C021970109C5
:1003A000802FFE010E94C616CB3AD10780E00807D5
:1003B000A9F70E943E0E0C944B1822CEFC01918DA1
:1003C000828D981761F0828DDF01A80FB11D5D96B7
:1003D0008C91928D9F5F9F73928F90E008958FEF25
:1003E0009FEF0895FC01918D828D981731F0828DD9
:1003F000E80FF11D858D90E008958FEF9FEF089530
:10040000FC01918D228D892F90E0805C9F4F821B93
:1004100091098F73992708958FE594E0F1DF21E02A
:10042000892B09F420E0822F0895FC01848DDF01DF
:10043000A80FB11DA35ABF4F2C91848D90E0019657
:100440008F739927848FA689B7892C93A089B18946
:100450008C9180648C93938D848D981306C0028850
:10046000F389E02D80818F7D80830895EF92FF9244
:100470000F931F93CF93DF93EC0181E0888F9B8DC7
:100480008C8D981305C0E889F989808185FD23C08A
:10049000F62E0B8D10E00F5F1F4F0F731127E02E0C
:1004A0008C8DE8120BC00FB607FCFACFE889F989EA
:1004B000808185FFF5CFCE01B8DFF2CF8B8DFE01B5
:1004C000E80FF11DE35AFF4FF0820B8FEA89FB8999
:1004D0008081806207C0EE89FF896083E889F9899D
:1004E00080818064808381E090E0DF91CF911F91D3
:1004F0000F91FF90EF900895CF93DF93EC01888DDB
:100500008823C1F0EA89FB89808185FD05C0A8891F
:10051000B9898C9186FD0EC00FB607FCF5CF80819E
:1005200085FFF2CFA889B9898C9185FFEDCFCE01E7
:100530007CDFE8CFDF91CF91089580E090E0892BB8
:1005400019F06ADF811125C080E090E0892B41F02D
:1005500080E090E0892B21F00E94000081111CC0F6
:1005600080E090E0892B41F080E090E0892B21F041
:100570000E940000811113C080E090E0892BA1F05F
:1005800080E090E0892B81F00E94000081110AC078
:1005900008950E940000D8CF0E940000E1CF0E9481
:1005A0000000EACF0C940000089590E0FC01319720
:1005B000E231F10508F04EC08827EE58FF4F8F4F0B
:1005C0000C94C616809180008F7703C080918000C4
:1005D0008F7D80938000089580918000877FF9CF80
:1005E00084B58F7702C084B58F7D84BD08958091D6
:1005F000B0008F7703C08091B0008F7D8093B000F2
:100600000895809190008F7707C0809190008F7D32
:1006100003C080919000877F80939000089580911F
:10062000A0008F7707C08091A0008F7D03C08091CC
:10063000A000877F8093A0000895809120018F778C
:1006400007C0809120018F7D03C080912001877FAA
:100650008093200108953FB7F8948091D103909141
:10066000D203A091D303B091D40326B5A89B05C0B3
:100670002F3F19F00196A11DB11D3FBFBA2FA92F21
:10068000982F8827820F911DA11DB11DBC01CD019E
:1006900042E0660F771F881F991F4A95D1F708958A
:1006A0004CE853E0FA012FEF3FEF9E2F941B981771
:1006B00088F49191292798E0B901617077273695E0
:1006C0002795672B21F061E0262760EA36279150B5
:1006D00099F7EBCF922F832F08952091D703309174
:1006E000D8032817390771F49091D5038091D60368
:1006F000981741F0E091D503F0E0E65BFC4F808174
:1007000090E008958FEF9FEF089508951F93CF9382
:10071000DF93DC015C962D913C915D9721153105AD
:1007200039F481E090E013969C938E9312973DC02C
:100730005196ED91FC91529750969C915097892F2C
:1007400080951FB75E964C915E9741FB772770F9B5
:1007500041FD6095F8944081772311F0492B01C049
:1007600048234083E9012197F1F748E0508160FF79
:1007700002C0592B01C058235083E9012197F1F79A
:100780006695415099F7772321F0908189238083E2
:1007900003C08081982B90831FBF5C968D919C91A4
:1007A0005D970197F1F721E030E0C901DF91CF912A
:1007B0001F9108952091D7033091D8032817390746
:1007C00069F48091D6032091D50390E0805C9F4F1F
:1007D000821B910960E470E00C94B31680E090E015
:1007E00008952091D7033091D80328173907B9F419
:1007F0009091D5038091D603981789F0E091D503A5
:10080000F0E0E65BFC4F80812091D50330E02F5F64
:100810003F4F2F7333272093D50390E008958FEF38
:100820009FEF08950E940F181F920F920FB60F921C
:1008300011240BB60F922F933F934F935F936F93B7
:100840007F938F939F93AF93BF93EF93FF938FE526
:1008500094E0EBDDFF91EF91BF91AF919F918F916C
:100860007F916F915F914F913F912F910F900BBEB0
:100870000F900FBE0F901F9018951F920F920FB6FA
:100880000F9211240BB60F922F938F939F93EF9398
:10089000FF93E0916F04F09170048081E091750402
:1008A000F091760482FD12C09081809178048F5F70
:1008B0008F7320917904821751F0E0917804F0E071
:1008C000E15AFB4F958F8093780401C08081FF919E
:1008D000EF919F918F912F910F900BBE0F900FBEB4
:1008E0000F901F901895CF93DF93282F30E0F901D8
:1008F000E85FFE4F8491F901E05FFC4FD491F9016C
:10090000E653FD4FC491CC2389F081114EDEEC2FCC
:10091000F0E0EE0FFF1FE055FD4FA591B491EC9173
:10092000ED2381E090E021F480E002C080E090E0DF
:10093000DF91CF9108951F93CF93DF93282F30E05D
:10094000F901E85FFE4F8491F901E05FFC4FD4911B
:10095000F901E653FD4FC491CC23C1F0162F81114C
:1009600024DEEC2FF0E0EE0FFF1FEA56FD4FA591BD
:10097000B4918FB7F894111105C09C91ED2FE095BB
:10098000E92302C0EC91ED2BEC938FBFDF91CF9167
:100990001F910895EF92FF921F93CF93DF93182F2B
:1009A00061E08091E003C7DF3CE8E32E33E0F32E03
:1009B000E701A091E503B091E6039C2F9E199117E2
:1009C00050F46991ED91FC9111970190F081E02D27
:1009D000CD011995EECFED91FC9111970284F3852D
:1009E000E02DCD0119958091D9039091DA038230E1
:1009F000910538F0880F991F880F991F0597019767
:100A0000F1F760E08091E003DF91CF911F91FF90BB
:100A1000EF9091CF2091DE033091DF032F5F3F4FA6
:100A20003093DF032093DE0390918B03911113C069
:100A30009091DD0390938C0390918A03906890933A
:100A40008D0380938E0383E02BDE90938F0380933E
:100A5000900385E09FCF0895CF93DF9390E0FC0152
:100A6000E05FFC4F2491FC01E653FD4F8491882305
:100A700061F190E0880F991FFC01E25BFE4FC59188
:100A8000D491FC01EA56FD4FA591B491611109C0C2
:100A90009FB7F8948881209582238883EC912E2338
:100AA0000BC0623061F49FB7F8943881822F809533
:100AB00083238883EC912E2B2C939FBF06C08FB786
:100AC000F894E8812E2B28838FBFDF91CF91089572
:100AD0008F929F92AF92BF92CF92DF92EF92FF924E
:100AE0006B017C01B8DD4B015C01C114D104E10450
:100AF000F104E9F0B0DDDC01CB0188199909AA09FC
:100B0000BB09883E9340A105B10578F321E0C21AE4
:100B1000D108E108F10888EE880E83E0981EA11C38
:100B2000B11CC114D104E104F10421F7DECFFF9020
:100B3000EF90DF90CF90BF90AF909F908F900895EF
:100B40002FB7F8946091CD037091CE038091CF03BD
:100B50009091D0032FBF08951F920F920FB60F925E
:100B600011242F933F938F939F93AF93BF938091C3
:100B7000CD039091CE03A091CF03B091D0033091DB
:100B8000CC0323E0230F2D3720F40196A11DB11DC6
:100B900005C026E8230F0296A11DB11D2093CC03AA
:100BA0008093CD039093CE03A093CF03B093D00353
:100BB0008091D1039091D203A091D303B091D4033B
:100BC0000196A11DB11D8093D1039093D203A093F0
:100BD000D303B093D403BF91AF919F918F913F9175
:100BE0002F910F900FBE0F901F90189508958EBDF6
:100BF00000000DB407FEFDCF8EB508958CBD9DBDE0
:100C000008950F931F93CF938C01C62F83E590E037
:100C1000F5DF60E0F80184858EDE8C2F8E778068AA
:100C2000E6DF80E0E4DFC82F61E0F801848583DE41
:100C30008C2FCF911F910F910895EF92FF921F93E8
:100C4000CF93DF931F92CDB7DEB77C01162F83E5DC
:100C500090E04983D3DF60E0F70184856CDE812F6B
:100C60008E77C5DF4981842FC2DF61E0F70184857B
:100C70000F90DF91CF911F91FF90EF905CCECF93BB
:100C8000DF93EC0161E08C85E7DE61E08C8553DE6B
:100C900061E08D85E1DE8D8526DE892B49F461E0FA
:100CA0008D8549DE62E370E080E090E011DF0EC0E8
:100CB0004FE062E0CE01C1DF62E370E080E090E0EF
:100CC00007DF62E0CE019DDF84FDFBCF40E864E5F5
:100CD000CE01B3DF49EA66E5CE01AFDF43E068E568
:100CE000CE01ABDF48EE6AE5CE01A7DF40E46AE261
:100CF000CE01A3DF4DE362E2CE019FDF68E2CE01C9
:100D000080DF982F9370933039F0482F436068E26A
:100D1000CE01DF91CF9191CFDF91CF910895CF9206
:100D2000DF92EF92FF920F931F93CF93DF93EC012B
:100D30006B01142F790140E062E07FDF44E06AE05C
:100D4000CE017BDF64E1CE0114D5A601612FCE0177
:100D5000DAD443E062E0CE0170DF08E813E16AE034
:100D6000CE014FDF82FD05C001501109C1F783E0BC
:100D70000FC040E062E0CE0160DF64E4CE0141DFFD
:100D8000F701808362E4CE013CDFF701818380E0DC
:100D9000DF91CF911F910F91FF90EF90DF90CF9057
:100DA00008952F923F924F925F926F927F928F920F
:100DB0009F92AF92BF92CF92DF92EF92FF920F93EA
:100DC0001F93CF93DF9300D0CDB7DEB73C01162F32
:100DD000342E2901A114B10419F0F501408101C09C
:100DE00040E0242EF0E18F9E200C112440E062E0D0
:100DF000C30123DF4FE768E0C3011FDF64E1C301E4
:100E0000B8D4A201602FC3017ED4422D6AE1C30190
:100E100014DF412F62E0C30110DF1C3019F46AE1D6
:100E2000C301A7D400ED17E068E0C301EADE982F04
:100E3000932131F480FDA0C001501109A9F79CC095
:100E40006CE0C301DEDE382E837109F097C0E11437
:100E5000F10409F45DC0C114D10409F459C064E17E
:100E6000C301CFDE982EF6018081891508F488C071
:100E70009082992009F442C083E590E0BFDE60E0F3
:100E8000F301848558DD9A9482E9B1DE2E2C270186
:100E900001E010E0842D8219891528F581111BC00D
:100EA0008820C9F0882D90E0883048F49801082EF9
:100EB00001C0220F0A94EAF7922B8F5FF5CF82E9E7
:100EC0009B8395DE9B81392F3095F7012081232369
:100ED0008923822B03C082E98ADEF2018083FFEF3F
:100EE0004F1A5F0AD7CF8701090D111D80E07FDE01
:100EF000F801808361E0F30184851DDD68E1C301B1
:100F000080DE8770982EA114B10411F0F501808362
:100F100033FC38C0E114F104B9F1C114D104A1F1DA
:100F2000898D882389F1F6014081413021F4F4E074
:100F30009F1203C01FC0423010F487E026C09110FA
:100F4000FCCF42509E012F5F3F4FB701C301E7DE48
:100F500081111BC0F6018081E80EF11CF701329768
:100F6000908189819813E9CF319690818A81981375
:100F7000E4CF0AC08FEF09C083E007C081E005C05D
:100F800084E003C082E001C080E00F900F900F90DA
:100F9000DF91CF911F910F91FF90EF90DF90CF9055
:100FA000BF90AF909F908F907F906F905F904F9089
:100FB0003F902F900895EF92FF921F93CF93DF936E
:100FC0001F92CDB7DEB77C01162F49831ADE498107
:100FD00040954823612FC7010F90DF91CF911F915A
:100FE000FF90EF902ACE6F927F928F92AF92BF9236
:100FF000CF92DF92EF92FF920F93CF93DF9300D0C7
:101000001F921F92CDB7DEB73C0182E08D8386E24E
:101010008C8340E86CE1C301CEDF87E08B831F92B5
:10102000812CCE0103965C0102966C0104977C0131
:1010300001E09E012C5F3F4F40E36CE0C301B1DE55
:101040000F90811109C08D81823029F481E09B814C
:10105000911102C006C081E091E0823019F090E069
:1010600001C091E0892F0F900F900F900F900F907B
:10107000DF91CF910F91FF90EF90DF90CF90BF90D5
:10108000AF908F907F906F9008950F931F93CF93A1
:10109000DF938091E5039091E603DC01ED91FC91F3
:1010A0000480F581E02D1995892B09F437C1D0E032
:1010B000C0E08091E5039091E603DC01ED91FC91A5
:1010C0000480F581E02D1995892B71F18091E5035C
:1010D0009091E603DD2341F0DC01ED91FC91068067
:1010E000F781E02D199511C0D1E0C03409F0D0E0AE
:1010F000DC01ED91FC910680F781E02D1995EC2F34
:10110000F0E0E457FC4F8083CF5F8091DB03909148
:10111000DC038230910568F2880F991F880F991FB0
:1011200005970197F1F7C5CFDD2361F08091DE03CC
:101130009091DF039C012F5F3F4F3093DF0320939B
:10114000DE03F0C0C83008F4DDC080918C03882332
:1011500019F010928B0303C091E090938B03D09110
:10116000DD038D1729F080918B03882309F4D6C005
:101170000C2F10E08EEF8C0F93DAA80144575C4FD0
:10118000FA013297208130E0322F222731964081B8
:10119000242B8217930709F0B8C040918D03409328
:1011A0008A0320918E0330E0322F222780918F0313
:1011B000282B8091900390E0982F882750919103DD
:1011C000852BBC01620F731FC0918B03C11143C0FB
:1011D000433009F040C04091E3035091E4032417E9
:1011E000350708F04DC04617570798F1880FC5E03E
:1011F000C80FD0938C0380938E03A091E103B0912C
:10120000E20393E0422F50E046175707A8F4440F3B
:10121000551FFD01E40FF51F30814181E92FF0E0FA
:10122000E457FC4F4083E1E0E90FF0E0E457FC4F66
:1012300030839E5F2F5FE6CF8D5F32DA2C2F30E058
:1012400024573C4FF90132979083319680838C2F3D
:1012500034C083E016C04630B1F0403109F050C0D0
:101260008091920390E0095011098017910709F0CD
:101270004CC08091E3039091E40328173907F8F0FC
:1012800082E0C8DB4BC04091E3035091E403241794
:101290003507B0F7220F331FE091E103F091E2032D
:1012A000E20FF31F9183808386E0FAD99093920333
:1012B00080939303C11132C088E06CDB2FC0861786
:1012C000970738F24091E1035091E20337E0822F13
:1012D00090E08617970740F7A32FB0E0880F991F7B
:1012E000FA01E80FF91FA457BC4F11968C91119782
:1012F000AC9190E09A2B918380833E5F2F5FE7CF84
:1013000081E0BFCFC150C73048F48091DE03909197
:10131000DF0301969093DF038093DE038091DE0369
:101320009091DF03DF91CF911F910F9108951F924C
:101330000F920FB60F9211240BB60F922F933F937B
:101340004F935F936F937F938F939F93AF93BF93CD
:10135000EF93FF93E091D703F091D803309709F40E
:1013600051C0968DA685B785858591FF04C09C9157
:10137000892329F447C09C91892309F043C0A3899C
:10138000B4899C918589809589238C9386899789D6
:101390000197F1F7608D718DA685B785558538E089
:1013A00020E0CB010197F1F7822F90E0959587958A
:1013B000282F4C91452309F02068315091F7868DF4
:1013C00081FD20958091D60390E001968F73992737
:1013D0003091D503381749F0A091D603B0E0A65B51
:1013E000BC4F2C938093D60303C0868D8160868F7B
:1013F000828D938D0197F1F7A389B4899C9185899A
:10140000892B8C93FF91EF91BF91AF919F918F9119
:101410007F916F915F914F913F912F910F900BBEF4
:101420000F900FBE0F901F901895AF92BF92CF9262
:10143000DF92EF92FF920F931F93CF93DF931F9250
:10144000CDB7DEB75C017B018B016C0186E0C80E75
:10145000D11CF80161918F01C50169830E941318A5
:101460006981681719F0C5010E941B18FFEFAF1AB8
:10147000BF0AAC14BD0469F7C7010F90DF91CF918B
:101480001F910F91FF90EF90DF90CF90BF90AF90A2
:101490000895CF92DF92EF92FF920F931F93CF9315
:1014A000DF93EB017B0126E0E20EF11C8B016C0166
:1014B000C61AD70AC601800F911F0E941318F8019F
:1014C00081938F01EE15FF05A9F7CE01DF91CF9132
:1014D0001F910F91FF90EF90DF90CF900895EF92C2
:1014E000FF920F931F93CF93DF93162F082FEC01DA
:1014F0008C2F801B8117B8F47E018881803118F011
:101500006FE772E002C067E672E08FE594E0B5D362
:101510002196F701408150E060E070E020E18FE526
:1015200094E018D3E5CFDF91CF911F910F91FF90F9
:10153000EF900895E7EEF3E0108211821282138299
:101540000895EBEEF3E080E090E022853385232BD5
:1015500009F00196369624E0E930F207B1F70895D4
:101560000F931F93CF93DF93C1EFD3E001E010E01F
:10157000E8DF80179107F8F08FE594E06BD36AE617
:1015800072E08FE594E069D364E0CE01A8DF8FE5D7
:1015900094E060D361E772E08FE594E06ED34C8114
:1015A0005D8160E070E02AE08FE594E0D3D20F5FC8
:1015B0001F4F2696DDCF8FE594E04CD361E872E0B3
:1015C0008FE594E05AD3BDDFAC0160E070E02AE023
:1015D0008FE594E0BFD28FE594E0DF91CF911F912A
:1015E0000F9138C3CF92DF92EF92FF920F931F9328
:1015F000CF93DF936C017A018B01C0E0D0E0CE1570
:10160000DF0589F0D8016D918D01D601ED91FC9136
:101610000190F081E02DC6011995892B11F47E010E
:1016200002C02196ECCFC701DF91CF911F910F919E
:10163000FF90EF90DF90CF9008956115710579F0DC
:10164000FB0101900020E9F73197AF01461B570BD2
:10165000DC01ED91FC910280F381E02D199480E092
:1016600090E008950F931F9385E23DD9019719F4F7
:1016700060E085E260D980916A05811109C08CE241
:1016800091E0909369058093680581E080936A05F5
:1016900057DA009164051091650520916605309137
:1016A0006705AB01BC01401B510B620B730B8091B2
:1016B000680590916905A0E0B0E0481759076A07EE
:1016C0007B07F0F081E20FD9019719F484E690E0EE
:1016D00002C08CE291E0909369058093680581E2F5
:1016E00002D961E0892B09F060E081E224D928DA8F
:1016F0006093640570936505809366059093670514
:101700001F910F910895CF92DF92EF92FF920F9366
:101710001F93CF93DF931F921F92CDB7DEB78C013B
:10172000F62E83E590E049835A8368DA60E0F80199
:10173000848501D982E15BDA4981E42EC42E5A8185
:10174000D52E8C2D8E198F1528F4F60181916F01FD
:101750004EDAF7CF61E0F8018485EDD80F900F9055
:10176000DF91CF911F910F91FF90EF90DF90CF907D
:101770003DCA1F93CF93DF93EC01162F42DA482F17
:101780004068612FCE01DF91CF911F9156CA8F9291
:10179000AF92BF92CF92DF92EF92FF920F93CF93CF
:1017A000DF9300D01F92CDB7DEB780E589831A8220
:1017B0009E012D5F3F4F42E0BE016F5F7F4F88E487
:1017C00095E0ADDA811119C01F92812CA12CB12CAA
:1017D000C12CD12CE12CF12C04E09E012F5F3F4F56
:1017E00040E36CE088E495E0DCDA0F90833021F090
:1017F000811103C081E001C080E00F900F900F9035
:101800000F90DF91CF910F91FF90EF90DF90CF90ED
:10181000BF90AF908F9008958F92AF92BF92CF926A
:10182000DF92EF92FF920F93CF93DF93CDB7DEB7A6
:101830002C970FB6F894DEBF0FBECDBF90E699830C
:101840008A83DE011396E9E5F4E086E08E0F91913C
:101850009D938E13FCCFE0914805F0E0EB5BFA4FCF
:10186000DE011996CE010D9621912D93A817B90787
:10187000D9F71F92812CA12CB12CC12CD12CE12C99
:10188000F12C0CE09E012F5F3F4F40E16EE088E4B9
:1018900095E087DA0F902C960FB6F894DEBF0FBE56
:1018A000CDBFDF91CF910F91FF90EF90DF90CF9060
:1018B000BF90AF908F9008952F923F924F925F927A
:1018C0006F927F928F929F92AF92BF92CF92DF9250
:1018D000EF92FF920F931F93CF93DF93CDB7DEB7B5
:1018E0002C970FB6F894DEBF0FBECDBF3C011B0195
:1018F00040E86CE160DB11E0123049F0133061F038
:10190000113009F0E8C083E98983912C09C085E989
:10191000898333E0932E04C087E9898326E0922EE1
:1019200050E05032F9F420E72A839C818B8189278B
:101930009D8189279E8189278F839E01285F3F4F44
:1019400047E0BE016F5F7F4FC3015C87E8D95C85CC
:101950008111C6C01B8633E03A87CE0107962C0161
:1019600009E01EC0952F97709B87252F25952595FB
:10197000259582E0820F392FE0E18E9F300D1124F2
:101980003A8301E0911101C000E0080F4424439420
:10199000512C4C0E5D1E480E511C87E0821B8A871D
:1019A0008B84482D4295407F480D6AE1C3015C87D6
:1019B00044D91F929E01255F3F4F5901CE010A96DF
:1019C0006C0172012A50310940E36CE0C301E9D98E
:1019D0000F905C85823099F56CE1C30112D95C856A
:1019E00085FD77C08F7109F480E2282F30E0452F04
:1019F000550F550B421753070CF06DC0582FC901F6
:101A000001978770992725952595259531E0320F07
:101A100021E0009709F420E0230FE1E0F0E0EC0F73
:101A2000FD1FE20FF11D21E030E002C0220F331F45
:101A30008A95E2F7C9019081892B808372CF811149
:101A40004FC0503211F050E26ECF8B81883819F4BC
:101A500033E023E002C032E024E080E090E0692D32
:101A600070E0FC01E60FF71FE20DF31D432F480F56
:101A7000A1E0B0E0AC0FBD1FA40FB11D4C9141839C
:101A80000196821770F38A85833039F58B85811131
:101A900024C09E012D5F3F4F41E0B201C3013FD9F9
:101AA00081111EC09B81F2018181981318C09C8115
:101AB0008281981314C0808182FF02C01F5F1CCFF7
:101AC000F1018387812F880F180F1F5F108380E03B
:101AD00007C082E005C085E003C081E001C087E067
:101AE0002C960FB6F894DEBF0FBECDBFDF91CF911D
:101AF0001F910F91FF90EF90DF90CF90BF90AF902C
:101B00009F908F907F906F905F904F903F902F901D
:101B100008950F931F93CF93DF938C01C0E0D0E023
:101B2000F801EC0FFD1F6491662371F0E0915F04F2
:101B3000F09160040190F081E02D8FE594E019951B
:101B4000892B11F02196ECCFCE01DF91CF911F911F
:101B50000F9108954F925F926F927F92EF92FF9252
:101B60000F931F93CF93DF93CDB7DEB7A1970FB637
:101B7000F894DEBF0FBECDBF7C01FA01CB0119A2E4
:101B8000223008F42AE08E010F5D1F4F422E512CA7
:101B9000612C712CBF01A30192010E942918F90147
:101BA000CA01015011096A3014F4605D01C0695C1A
:101BB000D8016C93232B242B252B61F7B801C70187
:101BC0003CDDA1960FB6F894DEBF0FBECDBFDF910E
:101BD000CF911F910F91FF90EF907F906F905F904A
:101BE0004F900895CF92DF92EF92FF92CF93DF93C1
:101BF0006C01990FEE08FF08F7FE20C0E0915F042A
:101C0000F09160040190F081E02D6DE28FE594E0A9
:101C10001995EC0144275527BA014C195D096E0945
:101C20007F092AE08FE594E095DF8C0F9D1FDF91FF
:101C3000CF91FF90EF90DF90CF9008952AE0B70109
:101C4000A6018FE594E0DF91CF91FF90EF90DF90B8
:101C5000CF9080CF6EE972E0F0CC0F931F93CF93BB
:101C6000DF93EC01EADC8C01CE01F4DF800F911FE1
:101C7000DF91CF911F910F910895DFCCCF93DF9328
:101C8000CDB7DEB767970FB6F894DEBF0FBECDBFF6
:101C9000789484B5826084BD84B5816084BD85B547
:101CA000826085BD85B5816085BD80916E00816053
:101CB00080936E00109281008091810082608093F9
:101CC00081008091810081608093810080918000FB
:101CD0008160809380008091B10084608093B10026
:101CE0008091B00081608093B0008091910082600B
:101CF0008093910080919100816080939100809108
:101D000090008160809390008091A1008260809318
:101D1000A1008091A10081608093A1008091A0002A
:101D200081608093A00080912101826080932101D5
:101D30008091210181608093210180912001816047
:101D40008093200180917A00846080937A00809152
:101D50007A00826080937A0080917A00816080931B
:101D60007A0080917A00806880937A001092C10096
:101D700010924005109241051092420510924305C1
:101D80001092FE041092FF041092000510920105BB
:101D900060ED77E080E090E00E9468058FE594E0D8
:101DA00090933F0580933E05E0916F04F09170049D
:101DB00002E00083E0916B04F0916C041082E091EA
:101DC0006D04F0916E0480E1808310927704E091BD
:101DD0007304F091740416E01083E0917104F091A3
:101DE0007204808180618083E0917104F0917204BB
:101DF000808188608083E0917104F0917204808119
:101E000080688083E0917104F091720480818F7DFD
:101E100080830E94A0056093FE047093FF0480936A
:101E20000005909301056FE872E080913E05909166
:101E30003F0523DF6AE070E080E090E00E946805E3
:101E400081E080931205E0916F04F09170040083AB
:101E5000E0916B04F0916C041082E0916D04F091BC
:101E60006E048FEC808310927704E0917304F091FC
:101E700074041083E0917104F09172048081806198
:101E80008083E0917104F091720480818860808386
:101E9000E0917104F0917204808180688083E09108
:101EA0007104F091720480818F7D808360E085E011
:101EB0000E942C0560E086E00E942C0560E087E02F
:101EC0000E942C0560E088E00E942C0561E08DE016
:101ED0000E942C0561EA72E08FE594E0CEDE88E096
:101EE0000E9473042091460530914705820F931F8D
:101EF000909347058093460588E00E94730472DE44
:101F00008091460590914705880F991F909347054A
:101F10008093460587E00E94730420914605309126
:101F20004705820F931F909347058093460587E0EE
:101F30000E94730457DE8091460590914705880FF3
:101F4000991F909347058093460586E00E9473048D
:101F50002091460530914705820F931F90934705C6
:101F60008093460586E00E9473043CDE809146051E
:101F700090914705880F991F9093470580934605D8
:101F800085E00E9473042091460530914705820F39
:101F9000931F909347058093460585E00E94730444
:101FA00021DE6CEA72E08FE594E067DE8091460501
:101FB0009091470517DE60EA72E08FE594E04DDE10
:101FC00020914605309147052115310519F0203241
:101FD0003105D4F061E08DE00E949B0464EF71E074
:101FE00080E090E00E94680560E08DE00E949B0424
:101FF00064EF71E080E090E00E9468056FEA72E0B3
:102000008FE594E02ADEE6CFE0914405F0914505A6
:10201000F093E603E093E503138E128E118E108E7B
:10202000178A168A8DE991E0958F848F848596EFC3
:10203000980F943048F04EEC480F443028F042ECB2
:10204000480F483008F063C04DEB50E0578B468B8B
:102050004BE951E0518F408F4CE251E0538F428F5A
:10206000943060F04EEC480F443040F062EC680F62
:10207000683008F4A5C540E050E0A4C548E650E04B
:10208000A8E6B0E06C91943018F08E53883010F0D0
:1020900081E001C084E0862BDA018C93848596EF81
:1020A000980F943058F04EEC480F443038F042EC22
:1020B000480F483030F040E050E005C04BE650E0BB
:1020C00002C04DE650E0548B438B943010F49AEFED
:1020D0000BC0823381F0833381F0843381F092EC42
:1020E000980F983070F492EC980F81E001C0880F3F
:1020F0009A95EAF707C088E005C084E003C082E053
:1021000001C081E0858B848D958D0197F1F7828DDB
:10211000938D892B49F16091D7037091D8036E1785
:102120007F0711F16115710571F0DB0153964D9137
:102130005C915497DA019C91DB0155968C918095C6
:102140008923DA018C93868D8E7F868F1092D60339
:102150001092D503F093D803E093D703A389B489F1
:102160009C918589892B8C932093DD038AE196E0ED
:102170009093DC038093DB038DE39EE09093DA037E
:102180008093D90388E090E09093E4038093E30385
:1021900080E494E09093E2038093E10384E08093F1
:1021A000E00361E00E942C0560E084E00E949B0453
:1021B0001092DF031092DE0362EC72E08FE594E090
:1021C0004CDD61E085E20E942C0561E081E20E9425
:1021D0002C0561E087E20E942C051FB7F8948091DE
:1021E0002704811127C0EFEFF2E08491E5E4F3E0EA
:1021F0009491E82FF0E0EE0FFF1FE25BFE4FA591F8
:10220000B491EC91E92321F461E085E30E949B0401
:1022100061E085E30E942C058CB580618CBD8CB596
:1022200080648CBD61E084E30E942C0561E083E35F
:102230000E942C05809127048F5F809327041FBF85
:1022400085E38093540519E01093550588E495E0E3
:102250000E943F068FE1809362051093630586E537
:1022600095E00E943F068FEF8093590480935A04B3
:1022700080935B0480935C0480935D0480935E0490
:102280006BEE73E08AEF9FE004D980E090E0CBD65C
:10229000082F10E01093290400932804011511055C
:1022A00009F045C060ED72E08FE594E0D6DC61E7AF
:1022B00072E08FE594E0E1DC4091EF035091F00390
:1022C00060E070E02AE08FE594E044DC8FE594E084
:1022D000C1DC64E08BEE93E002D98FE594E0BADCD8
:1022E0006DED72E08FE594E0C8DC409128045091D8
:1022F000290460E070E02AE08FE594E02BDC8FE5B4
:1023000094E0A8DC62EF72E08FE594E0A6DC28D9C7
:1023100061E085E20E949B04E4EF2E2E3324339487
:10232000412C512CFE017396FD8BEC8B85C06624ED
:102330006394712C6016710608F0B4CFB30160513C
:102340007C4FC301A6D8F6E06F0E711CF3CF0E943C
:10235000A005623071058105910508F071C10E94E8
:10236000450810915004812F90E090934104809390
:1023700040048091EF039091F00390934304809385
:102380004204DFD89093450480934404809136043E
:1023900090913704909347048093460480913804C9
:1023A00090913904909349048093480480913A04B1
:1023B00090913B0490934B0480934A0480913C0499
:1023C00090913D0490934D0480934C0480913E0481
:1023D00090913F0490934F0480934E04111134C0A8
:1023E00085E20E947304892B21F461E085E20E945A
:1023F0009B041092500480E00E947304892B21F00A
:1024000060E081E20E949B0488E495E00E94F3076B
:10241000811127C086E595E00E94F3078111A7C0CE
:102420000E947304892B21F060E087E20E949B04E4
:102430000E9445080E949D020E94A005672B682B00
:10244000692B09F0FDC083CF87E20E9473040197D6
:1024500039F660E085E20E949B0481E0809350049D
:10246000CACF68E475E0CB0127DA8111D3CF809120
:1024700049058093E70380914A058093E8038091A2
:102480004B058093E90380914C058093EA038CE827
:1024900092E03FDB6091480589E495E020D88FE524
:1024A00094E0D8DB80E892E034DBE0915305EF77ED
:1024B000E13478F5F0E0EA5FFD4F00810530E9F0A6
:1024C00078F4023051F128F4013021F58AE292E0EB
:1024D00026C0033079F00430E9F480EE91E01FC0AB
:1024E000073089F068F0083089F00F3F99F485E7EC
:1024F00091E015C08BEE91E012C085ED91E00FC028
:1025000083EB91E00CC087EA91E009C088E991E093
:1025100006C000E088E691E002C082E092E0F9DACD
:102520008FE594E097DB8DEF800F833038F08EE4F9
:1025300092E0EFDA8FE594E08DDB6CCF6090E703FB
:102540008091EB031091E8039090E9037090EA0307
:102550008611D2C28091EC038113CEC28091ED032B
:102560008911CAC28091EE038711C6C263C166E5B4
:1025700075E0CB01A1D9811161C01091570510936D
:1025800032049090580590923304709059057092DF
:10259000340460905A05609235040E94A10A40916B
:1025A000EF035091F003E4EFF3E021E030E0821715
:1025B0009307A8F1DF0113976C91611315C0119671
:1025C0006C91691111C011966C9167110DC06081F9
:1025D00066110AC0618172816417750729F461E090
:1025E00087E20E949B040AC02F5F3F4F3696DFCFE1
:1025F00066E575E0CB0160D9811111C061E087E229
:102600000E949B0481E08093500460E085E20E9478
:102610009B0486E595E00E94F3078111E9CF1092B3
:10262000320410923304109234041092350448E0BE
:1026300060E186E595E00E94DB07FACE80E0F0CE0F
:102640000E94A0056093550470935604809357042C
:102650009093580400915104109152042091530416
:1026600030915404601771078207930740F4609318
:102670005104709352048093530490935404009136
:1026800051041091520420915304309154046B0171
:102690007C01C01AD10AE20AF30A970186010A3FB7
:1026A00011052105310508F45ACE60935104709349
:1026B0005204809353049093540420920A0530925C
:1026C0000B0540920C0550920D0510920E051092CC
:1026D0000F0510921005109211058091020590913E
:1026E0000305A0910405B09105058093060590931C
:1026F0000705A0930805B09309050E94A005609303
:1027000002057093030580930405909305050E94CC
:10271000A0056093FE047093FF04809300059093DE
:1027200001050E94A0054B015C0165E073E080910A
:102730003E0590913F05A1DA2AE041E050E060E0DB
:1027400070E080913E0590913F0504DA6CE073E003
:1027500080913E0590913F0590DA2AE0B501A401F1
:1027600080913E0590913F05F5D96DEA72E0809128
:102770003E0590913F0581DA809102059091030515
:10278000A0910405B0910505B501A401481B590BA2
:102790006A0B7B0B2AE080913E0590913F05DAD9C8
:1027A0006DEA72E080913E0590913F0566DA4091B6
:1027B0000205509103056091040570910505809113
:1027C000060590910705A0910805B0910905481BE1
:1027D000590B6A0B7B0B2AE080913E0590913F05D7
:1027E000B9D960E173E080913E0590913F0545DAEB
:1027F0000E94A005AB01BC012AE080913E059091AA
:102800003F05A8D962E173E080913E0590913F05B4
:1028100024DA62E070E080E090E00E9468050E94A7
:10282000A0056093020570930305809304059093BF
:10283000050595CD0E949A0A60E085E20E949B04FE
:1028400060E087E20E949B04033019F480E491E089
:1028500007C0043019F480E094E002C080E090E109
:1028600090933104809330040E94A10A4BEE53E010
:1028700021E030E066E04A5F5F4F2817390758F4DF
:10288000EAE2F4E0DA01762F01900D927A95E1F711
:102890002F5F3F4FF0CF82E18B8B0091300410917E
:1028A00031048BE00E940C0C811111C044E016959C
:1028B00007954A95E1F79801215031093F8B2E8BFE
:1028C00066246394712C6BE0962E18E043C061E09F
:1028D00085E20E949B0461E087E20E949B0468EE0F
:1028E00073E080E090E058C08B89823108F457C0D3
:1028F00030E339831A839E012D5F3F4F42E0BE01D2
:102900006F5F7F4F88E495E00E948F06811147C07A
:1029100061E06F93812CA12CB12CCE0143966C0108
:10292000DE0111967D0104E09D0140E36CE088E446
:1029300095E00E94D1060F90811131C0598151114B
:102940003DC01F5FFE0131961192CC88DD88EC15E9
:10295000FD05D1F7812F90E0EE88FF888E159F0549
:1029600008F061C00E94320B1911BECF34E0932EE3
:10297000910E1F5F892D0E940C0C882309F4B4CF9F
:1029800061E085E20E949B0461E087E20E949B0473
:1029900068EB7BE080E090E00E94680551C061E058
:1029A00085E20E949B0461E087E20E949B0468EB41
:1029B0007BE080E090E00E94680535C04A814423B6
:1029C00009F4BFCF3B81332309F4BBCF2C812223F1
:1029D00009F4B7CF6D81662309F4B3CF8E818823C4
:1029E00009F4AFCF90E0962B6091EF037091F00364
:1029F0008617970709F0A5CFB6E0B69DF001B79D01
:102A0000F00D1124E551FC4F508341833283238321
:102A100095838483EFEF6E1A7E0A69E173E08FE598
:102A200094E01BD98ECF0E94C70B48E060E188E498
:102A300095E00E94DB0768E273E08FE594E00DD932
:102A400000E010E0809128049091290408171907EC
:102A500040F40E94320B60E0C801EDD20F5F1F4FBF
:102A6000F1CF10922904109228040E94A10A4C016F
:102A7000AA24A394B12C01E010E08A149B0460F016
:102A8000B80160517C4FC8010E94150A0A5F1F4FB0
:102A90002FEFA21AB20AF1CF109329040093280451
:102AA000602F80E090E0C7D20E94B00A6BEE73E026
:102AB0008AEF9FE00E94490A0BC0DF0113976C91D7
:102AC000661529F12F5F3F4F369682179307A8F7B7
:102AD0000E94C70B48E060E188E495E00E94DB07B4
:102AE00080E00E947304892B21F061E085E20E945E
:102AF0009B040E949A0A8ECC0E94A10A4091EF0387
:102B00005091F003E4EFF3E021E030E0DECF1196E6
:102B10006C916113D7CF11966C916911D3CF6081FD
:102B20006711D0CF618172816417750759F6220F42
:102B3000331FF901EC5CFB4F8081918101969183F9
:102B400080830E949A0A61E087E20E949B0460E011
:102B500085E20E949B0468E373E08FE594E07DD8F2
:102B600060E273E080E090E00E94680560E087E248
:102B70000E949B0496E3A92E94E0B92E00E010E099
:102B80008FE594E067D863E473E08FE594E075D84F
:102B90000F5F1F4FC80126D86EE772E08FE594E003
:102BA0006CD8D5014D915D915D0160E070E02AE047
:102BB0008FE594E00E94AA0D0530110509F788CF32
:102BC00048E650E0683008F45BCAA0E0B0E05ACABA
:102BD000CF92DF92EF92FF92CF93DF931092620435
:102BE0001092610498EEC92E93E0D92EE12CF12CBD
:102BF000C0926304D0926404E0926504F09266048B
:102C00008BE492E09093600480935F0485EC90E005
:102C100090936C0480936B0484EC90E090936E042A
:102C200080936D0480EC90E09093700480936F0427
:102C300081EC90E0909372048093710482EC90E0B8
:102C4000909374048093730486EC90E090937604E0
:102C500080937504109278041092790410927A048B
:102C600010927B0410920205109203051092040545
:102C7000109205051092060510920705109208059E
:102C80001092090510920A0510920B0510920C057E
:102C900010920D0510920E0510920F05109210055E
:102CA000109211058FE190E08DD0EC011B821A8209
:102CB000CC82DD82EE82FF828BE592E0998388836D
:102CC0001F8A1E8A198E188E1B8E1A8E1D8E1C8EC0
:102CD0006E8D6E7F6D7F6E8F6695617081E0682767
:102CE0008BE00E949B0461E08BE00E942C05EBE1ED
:102CF000F3E0E491E88BE5EDF2E0E491F0E0EE0F33
:102D0000FF1FEA56FD4F859194919A8B898B60E065
:102D10008AE00E942C058E8D81FD04C061E08AE06E
:102D20000E949B048AE08C87EAE1F3E0E491ED875E
:102D3000E4EDF2E0E491F0E0EE0FFF1FE055FD4F0F
:102D4000859194919F878E87D0934505C0934405C4
:102D50001092470510924605DF91CF91FF90EF90BA
:102D6000DF90CF90089597FB072E16F4009406D0BD
:102D700077FD08D013D007FC05D03EF490958195DF
:102D80009F4F0895709561957F4F0895EE0FFF1F37
:102D9000881F8BBF0790F691E02D1994AA1BBB1BCF
:102DA00051E107C0AA1FBB1FA617B70710F0A61B4B
:102DB000B70B881F991F5A95A9F780959095BC016C
:102DC000CD010895CF93DF938230910510F482E016
:102DD00090E0E0917405F091750520E030E0C0E0EE
:102DE000D0E0309711F14081518148175907C0F068
:102DF0004817590761F482819381209719F09B83CA
:102E00008A832BC0909375058093740526C0211585
:102E1000310519F04217530718F49A01BE01DF017A
:102E2000EF010280F381E02DDCCF2115310509F19E
:102E3000281B390B2430310590F412968D919C910A
:102E400013976115710521F0FB019383828304C000
:102E50009093750580937405FD01329644C0FD0181
:102E6000E20FF31F81939193225031092D933C93EC
:102E70003AC02091720530917305232B41F42091C3
:102E80000202309103023093730520937205209162
:102E90000002309101022115310541F42DB73EB7F2
:102EA0004091040250910502241B350BE0917205FC
:102EB000F0917305E217F307A0F42E1B3F0B2817C0
:102EC000390778F0AC014E5F5F4F2417350748F0A3
:102ED0004E0F5F1F5093730540937205819391933A
:102EE00002C0E0E0F0E0CF01DF91CF9108950F93B1
:102EF0001F93CF93DF93009709F48CC0FC013297A6
:102F00001382128200917405109175050115110547
:102F100081F420813181820F931F209172053091BD
:102F200073052817390779F5F0937305E093720557
:102F300071C0D80140E050E0AE17BF0750F41296C0
:102F40002D913C911397AD012115310509F1D9015E
:102F5000F3CF9D01DA013383228360817181860F73
:102F6000971F8217930769F4EC0128813981260F96
:102F7000371F2E5F3F4F318320838A819B8193834C
:102F80008283452B29F4F0937505E093740542C0C4
:102F90001396FC93EE931297ED01499159919E017E
:102FA000240F351FE217F30771F480819181840F9C
:102FB000951F029611969C938E938281938113960E
:102FC0009C938E931297E0E0F0E0D80112968D91D9
:102FD0009C911397009719F0F8018C01F6CF8D9111
:102FE0009C9198012E5F3F4F820F931F2091720595
:102FF000309173052817390769F4309729F4109236
:1030000075051092740502C0138212821093730525
:1030100000937205DF91CF911F910F91089581E088
:1030200090E0F89438C0F999FECF92BD81BDF89A2E
:10303000992780B50895262FF999FECF1FBA92BD22
:1030400081BD20BD0FB6F894FA9AF99A0FBE019689
:103050000895A1E21A2EAA1BBB1BFD010DC0AA1FD9
:10306000BB1FEE1FFF1FA217B307E407F50720F0F1
:10307000A21BB30BE40BF50B661F771F881F991F6C
:103080001A9469F760957095809590959B01AC01B5
:0A309000BD01CF010895F894FFCFB1
:10309A0000007605800006080000FF000000040317
:1030AA000000000000000707000000000000050003
:1030BA000000000000000100000000000000000005
:1030CA0000000000000000000000000000000000F6
:1030DA0000000000000002000000003602F20A00B0
:1030EA0002DE01F2017C02000000008603F20ADA25
:1030FA0003F1036D038503203000436172643A20B3
:10310A00004E756D65726F207374616E7A613A2034
:10311A00004E756D65726F20636172643A200056C5
:10312A004D4450565F317C315F564D4450560D0A1E
:10313A00004D6F536174204944202800293A004DFC
:10314A006F53617420696E20616C6C61726D6521C8
:10315A0021004D6F5361742050726F6E74612100AB
:10316A004D617374657220436172643A004C6173F5
:10317A00742076616C756520616464726573733A54
:10318A0020004361726473204D656D6F72697A7AAB
:10319A006174653A00564D4450455F003A323A0030
:1031AA007C005F564D445045004361726963617407
:1031BA006120636172642E0044756D7020636F6DC7
:1031CA00706C657461746F004170726920506F721F
:0A31DA00746100436172642000007C
:00000001FF
