:10000000ACC30000DBC30000D9C30000D7C30000AD
:10001000D5C30000D3C30000D1C30000CFC300008C
:10002000CDC30000CBC30000C9C30000C7C300009C
:10003000C5C30000C3C30000C1C30000BFC30000AC
:10004000BDC30000BBC30000B9C30000B7C30000BC
:10005000B5C30000B3C30000B1C3000013C6000065
:10006000ADC30000AAC500007FC50000A7C3000003
:10007000A5C30000A3C30000A1C300009FC30000EC
:100080009DC300009BC3000099C3000097C30000FC
:1000900095C3000093C3000091C300008FC300000C
:1000A0008DC300008BC3000089C3000087C300001C
:1000B00085C3000083C3000081C300007FC300002C
:1000C0007DC300007BC3000079C3000077C300003C
:1000D00075C3000073C3000071C300006FC300004C
:1000E0006DC30000F104F404E304E704ED042B0500
:1000F000F804FC04020506050A0510051405180598
:100100002B051E0522052605556E6B6E6F776E203A
:100110006572726F720041204D4946415245205030
:1001200049434320726573706F6E6465642077691C
:100130007468204E414B2E00546865204352435F43
:100140004120646F6573206E6F74206D6174636805
:100150002E00496E76616C696420617267756D6509
:100160006E742E00496E7465726E616C20657272D9
:100170006F7220696E2074686520636F64652E203D
:1001800053686F756C64206E6F7420686170706561
:100190006E2E004120627566666572206973206E5E
:1001A0006F742062696720656E6F7567682E0054F2
:1001B000696D656F757420696E20636F6D6D756E06
:1001C00069636174696F6E2E00436F6C6C69737341
:1001D000696F6E2064657465637465642E00457292
:1001E000726F7220696E20636F6D6D756E696361E9
:1001F00074696F6E2E00537563636573732E000010
:100200000020002300260029002C002F00320000CF
:1002100001000003010601090100000A0B02090C9C
:100220000D0E08070304010000000000000000009C
:1002300000000000000000000000000000000000BE
:10024000000000000012111000000000000000007B
:10025000000000000000000000000000000000425C
:1002600045574152453A20446174612077696C6C6E
:10027000206265207772697474656E20746F2074D3
:10028000686520504943432C20696E207365637470
:100290006F72202331005573696E67206B6579207A
:1002A00028666F72204120616E642042293A005313
:1002B00063616E2061204D494641524520436C6187
:1002C00073736963205049434320746F2064656DE4
:1002D0006F6E737472617465207265616420616E03
:1002E000642077726974652E00556E6B6E6F776E41
:1002F00020747970650053414B20696E64696361B5
:1003000074657320554944206973206E6F742063AF
:100310006F6D706C6574652E004D494641524520E5
:10032000544E5033585858004D494641524520507C
:100330006C7573004D494641524520556C7472618D
:100340006C69676874206F7220556C7472616C6997
:100350006768742043004D494641524520344B4262
:10036000004D494641524520314B42004D494641DE
:100370005245204D696E692C2033323020627974E9
:100380006573005049434320636F6D706C69616E03
:100390007420776974682049534F2F4945432031B1
:1003A0003830393220284E464329005049434320F3
:1003B000636F6D706C69616E742077697468204931
:1003C000534F2F4945432031343434332D340043C7
:1003D000757272656E74206461746120696E207339
:1003E0006563746F723A0020207065726861707383
:1003F00020746865207772697465206469646E276B
:100400007420776F726B2070726F7065726C792ECA
:100410002E2E004661696C7572652C206E6F206D02
:1004200061746368203A2D280053756363657373A4
:10043000203A2D29004E756D626572206F6620622C
:10044000797465732074686174206D6174636820C9
:100450003D2000436865636B696E67207265737544
:100460006C742E2E2E003A004461746120696E2057
:10047000626C6F636B20004D49464152455F526587
:1004800061642829206661696C65643A2000202E29
:100490002E2E0052656164696E672064617461206C
:1004A00066726F6D20626C6F636B20004D49464130
:1004B00052455F57726974652829206661696C65C9
:1004C000643A2000202E2E2E0057726974696E67E0
:1004D000206461746120696E746F20626C6F636B5D
:1004E00020005043445F41757468656E74696361B0
:1004F00074652829206661696C65643A200041753D
:100500007468656E7469636174696E6720616761A0
:10051000696E207573696E67206B657920422E2E97
:100520002E003A004461746120696E20626C6F6332
:100530006B20004D49464152455F52656164282950
:10054000206661696C65643A2000202E2E2E0052D0
:10055000656164696E6720646174612066726F6DA5
:1005600020626C6F636B200043757272656E74203D
:100570006461746120696E20736563746F723A0000
:100580005043445F41757468656E74696361746556
:100590002829206661696C65643A20004175746899
:1005A000656E7469636174696E67207573696E67DF
:1005B000206B657920412E2E2E00546869732073BC
:1005C000616D706C65206F6E6C7920776F726B73E4
:1005D0002077697468204D494641524520436C613B
:1005E000737369632063617264732E0050494343DF
:1005F00020747970653A2000436172642055494443
:100600003A0000002200250028002B002E003100B7
:10061000340002010000050108010B010000210067
:10062000240027002A002D003000330001010000C3
:10063000040107010A010505050507050808080862
:10064000020202020A0A080804040404010101016A
:100650000101010103030303030303030407070765
:100660000C0C0C0C0C0C0C0C02020202060606060A
:10067000060606060B0B0B0B0B0B0B0B01021020D7
:1006800020080810204010204080020102010804C8
:10069000020101020408102040808040201008045C
:1006A00002018004020180402010080402010804B5
:1006B00002010102040810204080010204081020F9
:1006C0004080204164723D3078002056616C756531
:1006D0003D30780020496E766572746564206163F0
:1006E00063657373206269747320646964206E6F3C
:1006F00074206D61746368212000205D200020005B
:100700002000205B2000200020002030004D4946C2
:100710004152455F526561642829206661696C65B4
:10072000643A20005043445F41757468656E746993
:10073000636174652829206661696C65643A2000EC
:100740002020002020200020202020202020002009
:100750002020002020200000181011241FBECFEF01
:10076000D1E2DEBFCDBF00E00CBF12E0A0E0B2E0FE
:10077000ECE2F1E200E00BBF02C007900D92A83757
:10078000B107D9F723E0A8E7B2E001C01D92AB376B
:10079000B207E1F713E0CDEAD3E000E006C021970D
:1007A0000109802FFE010E945D10CC3AD10780E044
:1007B0000807A9F70E94140C0C94941021CCFC019A
:1007C000918D828D981761F0828DDF01A80FB11D88
:1007D0005D968C91928D9F5F9F73928F90E00895AC
:1007E0008FEF9FEF0895FC01918D828D981731F066
:1007F000828DE80FF11D858D90E008958FEF9FEFBA
:100800000895FC01918D228D892F90E0805C9F4F8F
:10081000821B91098F739927089582E892E0F1DF96
:1008200021E0892B09F420E0822F0895FC01848DBA
:10083000DF01A80FB11DA35ABF4F2C91848D90E00A
:1008400001968F739927848FA689B7892C93A089E5
:10085000B1898C9180648C93938D848D981306C09C
:100860000288F389E02D80818F7D80830895EF9247
:10087000FF920F931F93CF93DF93EC0181E0888F5A
:100880009B8D8C8D981305C0E889F989808185FD41
:1008900023C0F62E0B8D10E00F5F1F4F0F73112733
:1008A000E02E8C8DE8120BC00FB607FCFACFE8895A
:1008B000F989808185FFF5CFCE01B8DFF2CF8B8D2E
:1008C000FE01E80FF11DE35AFF4FF0820B8FEA891A
:1008D000FB898081806207C0EE89FF896083E88997
:1008E000F98980818064808381E090E0DF91CF91FD
:1008F0001F910F91FF90EF900895CF93DF93EC013C
:10090000888D8823C1F0EA89FB89808185FD05C037
:10091000A889B9898C9186FD0EC00FB607FCF5CF6A
:10092000808185FFF2CFA889B9898C9185FFEDCFB1
:10093000CE017CDFE8CFDF91CF91089580E090E099
:10094000892B19F06ADF811125C080E090E0892BA6
:1009500041F080E090E0892B21F00E94000081119D
:100960001CC080E090E0892B41F080E090E0892B72
:1009700021F00E940000811113C080E090E0892BDB
:10098000A1F080E090E0892B81F00E9400008111AD
:100990000AC008950E940000D8CF0E940000E1CF55
:1009A0000E940000EACF0C940000089590E0FC0142
:1009B0003197E231F10508F04EC08827EE58FF4F1D
:1009C0008F4F0C945D10809180008F7703C08091D1
:1009D00080008F7D80938000089580918000877FC4
:1009E000F9CF84B58F7702C084B58F7D84BD08951B
:1009F0008091B0008F7703C08091B0008F7D80938D
:100A0000B0000895809190008F7707C0809190008A
:100A10008F7D03C080919000877F80939000089520
:100A20008091A0008F7707C08091A0008F7D03C0C8
:100A30008091A000877F8093A0000895809120017D
:100A40008F7707C0809120018F7D03C080912001A6
:100A5000877F8093200108953FB7F89480917902B1
:100A600090917A02A0917B02B0917C0226B5A89B5E
:100A700005C02F3F19F00196A11DB11D3FBFBA2F30
:100A8000A92F982F8827820F911DA11DB11DBC0190
:100A9000CD0142E0660F771F881F991F4A95D1F755
:100AA00008958F929F92AF92BF92CF92DF92EF9272
:100AB000FF926B017C01D0DF4B015C01C114D104BA
:100AC000E104F104E9F0C8DFDC01CB0188199909E0
:100AD000AA09BB09883E9340A105B10578F321E03E
:100AE000C21AD108E108F10888EE880E83E0981E4A
:100AF000A11CB11CC114D104E104F10421F7DECF23
:100B0000FF90EF90DF90CF90BF90AF909F908F902D
:100B10000895EF92FF920F931F93CF93DF93162FB9
:100B2000082FEC018C2F801B8117B8F47E0188817F
:100B3000803118F064E672E002C061E672E082E89B
:100B400092E094D42196F701408150E060E070E09B
:100B500020E182E892E09FD4E5CFDF91CF911F9111
:100B60000F91FF90EF9008951F920F920FB60F9282
:100B700011240BB60F922F933F934F935F936F9374
:100B80007F938F939F93AF93BF93EF93FF9382E8ED
:100B900092E04CDEFF91EF91BF91AF919F918F91C9
:100BA0007F916F915F914F913F912F910F900BBE6D
:100BB0000F900FBE0F901F9018951F920F920FB6B7
:100BC0000F9211240BB60F922F938F939F93EF9355
:100BD000FF93E0919202F09193028081E09198025C
:100BE000F091990282FD12C0908180919B028F5FEB
:100BF0008F7320919C02821751F0E0919B02F0E0EC
:100C0000EE57FD4F958F80939B0201C08081FF912D
:100C1000EF919F918F912F910F900BBE0F900FBE70
:100C20000F901F9018951F93CF93DF93282F30E0DC
:100C3000F901E75EFD4F8491F901E458F94FD49131
:100C4000F901EA5CF94FC491CC23C1F0162F811150
:100C5000ADDEEC2FF0E0EE0FFF1FEE5FF94FA59138
:100C6000B4918FB7F894111105C09C91ED2FE095C8
:100C7000E92302C0EC91ED2BEC938FBFDF91CF9174
:100C80001F9108951F920F920FB60F9211242F9368
:100C90003F938F939F93AF93BF9380917D029091E9
:100CA0007E02A0917F02B09180023091780223E011
:100CB000230F2D3720F40196A11DB11D05C026E894
:100CC000230F0296A11DB11D2093780280937D020F
:100CD00090937E02A0937F02B0938002809179026C
:100CE00090917A02A0917B02B0917C020196A11DA5
:100CF000B11D8093790290937A02A0937B02B09306
:100D00007C02BF91AF919F918F913F912F910F9056
:100D10000FBE0F901F9018958430D9F050F4813099
:100D200091F030F1823091F08330F9F48FEA91E064
:100D300008958630A1F080F08730A1F08F3FA9F4AC
:100D400086E191E008958EED91E0089589EC91E0BF
:100D5000089583E991E0089584E691E0089582E59D
:100D600091E0089588E391E0089588E091E0089586
:100D700086EF91E0089508958EBD00000DB407FE42
:100D8000FDCF8EB508958CBD9DBD0895CF92DF92A5
:100D9000FF920F931F93CF93DF931F92CDB7DEB7D0
:100DA000082F162F83E590E07983EDDF60E08091D6
:100DB000730339DF82E1E0DFF12EC12E7981D72E76
:100DC0008C2D8F19801728F4F60181916F01D4DFE3
:100DD000F7CF61E08091730326DF0F90DF91CF9111
:100DE0001F910F91FF90DF90CF90C5CFE2E8F2E026
:100DF000A089B18982E08C93A485B5851C92A685D3
:100E0000B7858FEC8C93108EA489B58986E08C937E
:100E1000A289B3898C9180618C93A289B3898C91CA
:100E200088608C93A289B3898C9180688C930288A6
:100E3000F389E02D80818F7D8083089565E772E0DE
:100E400082E892E013C30F931F93CF93DF938C013B
:100E5000C0E0D0E0F801EC0FFD1F6491662371F053
:100E6000E0918202F09183020190F081E02D82E80E
:100E700092E01995892B11F02196ECCFCE01DF91EC
:100E8000CF911F910F910895CF93DF93DCDFEC0199
:100E9000D5DF8C0F9D1FDF91CF9108950F931F9386
:100EA000CF93DF93082F162F83E590E06CDFC7E622
:100EB000D3E060E08C85B7DE802F8E775DDF812FF9
:100EC0005BDF61E08C85AFDEDF91CF911F910F91E9
:100ED00052CF0F931F93CF93C82F83E590E053DF3A
:100EE00007E613E060E0F80184859DDE8C2F8E77A5
:100EF000806842DF80E040DFC82F61E0F801848530
:100F000092DE39DF8C2FCF911F910F910895CF93EF
:100F1000C82FDFDF682F60688C2FCF91BFCF90E0A4
:100F2000FC01E458F94F2491FC01EA5CF94F8491EB
:100F3000882399F090E0880F991FFC01E45EF94F37
:100F4000A591B491FC01EE5FF94F859194918FB713
:100F5000F894EC91E22BEC938FBF08951F93CF93FD
:100F6000DF931F92CDB7DEB7182F6983B2DF698197
:100F700060956823812F0F90DF91CF911F918ECFC5
:100F8000EF92FF920F931F93CF93DF937C01C62FB5
:100F90008A0160E082E082DF64E08AE07FDF84E152
:100FA000B6DFB7018C2FF2DE63E082E077DFC8E8BE
:100FB000D3E18AE08EDF82FD04C02197D1F783E080
:100FC0000CC060E082E06ADF84E483DFF8018083A4
:100FD00082E47FDFF801818380E0DF91CF911F9170
:100FE0000F91FF90EF9008952F923F924F925F9252
:100FF0006F927F928F929F92AF92BF92CF92DF9229
:10100000EF92FF920F931F93CF93DF9300D0CDB752
:10101000DEB7982E762E2A01C114D10419F0F601FC
:10102000608101C060E0662EF0E1AF9E600C11248B
:1010300060E082E02B8332DF6FE788E02FDF84E11E
:1010400066DFB2012B81822FA1DE662D8AE126DFC9
:10105000692D82E023DF8CE0981202C08AE157DF1D
:1010600090ED492E97E0592E88E033DF982F972195
:1010700039F480FD9CC0E1E04E1A5108A9F797C0F1
:101080008CE027DF382E837109F093C0011511051C
:1010900009F45BC0E114F10409F457C084E119DFDD
:1010A000982EF7018081891508F485C090829920D7
:1010B00009F442C083E590E066DE60E0809173034E
:1010C000B2DD9A9482E958DE202E380144244394FC
:1010D000512C862D8219891518F5811119C0AA2065
:1010E000B9F08A2DB12C883048F49201082E01C045
:1010F000220F0A94EAF7B22A8F5FF5CF82E93CDE2D
:101100002B2D2095F801908192238B21892B03C0F0
:1011100082E932DEF3018083FFEF6F1A7F0AD9CFB5
:101120005801A90CB11C80E027DEF501808361E045
:101130008091730378DD1FDE88E1CBDE8770B82EE7
:10114000C114D10411F0F601808333FC36C00115BF
:101150001105A9F1E114F10491F1882081F1F70161
:101160006081613021F4F4E0BF1203C01EC0623020
:1011700010F487E025C0B110FCCF6250AE014F5F84
:101180005F4FC801FDDE81111BC0F7018081080F90
:10119000111DF8013297908189819813EACF319619
:1011A00090818A819813E5CF0AC08FEF09C083E050
:1011B00007C081E005C084E003C082E001C080E098
:1011C0000F900F900F90DF91CF911F910F91FF9093
:1011D000EF90DF90CF90BF90AF909F908F907F90D7
:1011E0006F905F904F903F902F900895CF92DF9235
:1011F000EF92FF92CF93DF936C01990FEE08FF08F7
:10120000F7FE20C0E0918202F09183020190F0810C
:10121000E02D6DE282E892E01995EC014427552714
:10122000BA014C195D096E097F092AE082E892E053
:1012300032D18C0F9D1FDF91CF91FF90EF90DF9007
:10124000CF9008952AE0B701A60182E892E0DF91ED
:10125000CF91FF90EF90DF90CF901DC18F92AF9212
:10126000CF92DF92EF92FF920F931F93CF93DF9372
:1012700061157105E9F0FA0190819231C8F07A01A7
:10128000EB0190E398838983AB014E5F5F4F62E08F
:10129000CE0176DE81110DC088248394A12CC12C4F
:1012A000D12C8E0124E0AE0160E38CE09DDE01C014
:1012B00084E0DF91CF911F910F91FF90EF90DF902D
:1012C000CF90AF908F900895CF92DF92EF92FF92E0
:1012D0000F931F93CF93DF936C017A018B01C0E0D2
:1012E000D0E0CE15DF0589F0D8016D918D01D601D2
:1012F000ED91FC910190F081E02DC6011995892BAB
:1013000011F47E0102C02196ECCFC701DF91CF918D
:101310001F910F91FF90EF90DF90CF900895D5D659
:101320008F92AF92CF92DF92EF92FF920F931F9323
:10133000CF93DF93CDB7DEB72C970FB6F894DEBF0F
:101340000FBECDBF89836A83DE011396E5E7F3E024
:1013500086E08E0F91919D938E13FCCFE0916703F1
:10136000F0E0EC59FC4FDE011996CE010D9621916B
:101370002D93A817B907D9F7812CA12CC12CD12CFA
:10138000E12CF12C00E010E02CE0AE014F5F5F4F4C
:1013900060E18EE029DE2C960FB6F894DEBF0FBE1A
:1013A000CDBFDF91CF911F910F91FF90EF90DF9014
:1013B000CF90AF908F9008958F92AF92CF92DF929F
:1013C000EF92FF920F931F93CF93DF93CDB7DEB7CA
:1013D00064970FB6F894DEBF0FBECDBF162FE62E72
:1013E000F12CA701BC01CE01019673D641E050E07B
:1013F0004C0F5D1F4E0D5F1D612FCE010196C0DDAC
:10140000811123C082E18C8B1B8A22E0210F812C69
:10141000A12CCE0143966C0101967C018E010F5FD9
:101420001F4FA80160E38CE0DFDD81110EC08C89C5
:10143000813051F48B89843039F481E099819A307C
:1014400009F480E0819501C081E064960FB6F894BC
:10145000DEBF0FBECDBFDF91CF911F910F91FF90E7
:10146000EF90DF90CF90AF908F9008956115710548
:1014700079F0FB0101900020E9F73197AF01461B9D
:10148000570BDC01ED91FC910280F381E02D199462
:1014900080E090E008954F925F926F927F92EF927A
:1014A000FF920F931F93CF93DF93CDB7DEB7A19732
:1014B0000FB6F894DEBF0FBECDBF7C01FA01CB01A1
:1014C00019A2223008F42AE08E010F5D1F4F422E30
:1014D000512C612C712CBF01A301920103D6F9019B
:1014E000CA01015011096A3014F4605D01C0695CE1
:1014F000D8016C93232B242B252B69F7B801C70146
:10150000B5DFA1960FB6F894DEBF0FBECDBFDF9159
:10151000CF911F910F91FF90EF907F906F905F9010
:101520004F9008953F924F925F926F927F928F9269
:101530009F92AF92BF92CF92DF92EF92FF920F9362
:101540001F93CF93DF93CDB7DEB76B970FB6F894A9
:10155000DEBF0FBECDBFA7E0CA2ED12CE12CF12CEF
:1015600044244394B2E15B2E6C2C442071F083E55B
:1015700097E069DC2AE041E050E060E070E082E85A
:1015800092E089DF8FE497E002C087E497E05BDCBC
:1015900083E497E058DC2AE0B701A60182E892E0F4
:1015A0007ADF80E497E04FDC442069F064E080E675
:1015B000B7DEB82E882339F084E297E044DC8B2D27
:1015C000ABDB62DC19C15F8AAE01495E5F4FBE01D1
:1015D0006F5F7F4F862D42DEB82E882339F08DE075
:1015E00097E031DC8B2D98DB4FDCFAC0CE01019601
:1015F0005C01312C4501F5018081803118F48AE0CD
:1016000097E002C088E097E01EDCFFEFAF1ABF0A48
:10161000F401408150E060E070E020E182E892E077
:101620003ADF832D8370833019F486E097E00BDC7A
:101630003394F0E13F12DECF442009F477C068858F
:10164000462F50E0E4E055954795EA95E1F79985F6
:10165000892F8F70292F30E0F4E035952795FA9582
:10166000E1F7EF81AE2FAF70B0E0A095B095AF700D
:10167000BB274A175B07D1F4A82FB0E0F0E070EF6A
:10168000E72774E0F695E7957A95E1F7AE17BF077F
:1016900069F46F7070E0609570956F7077277724AC
:1016A00073942617370721F4712C02C077247394A2
:1016B000E22FE170092F017010E0B801660F771F6B
:1016C000E62BBA0161707727660F771F660F771FC9
:1016D0006E2B6B8BBA0162707727660F771F21FB29
:1016E000772770F9672B8270682B6C8B692F647079
:1016F00070E075956795842F8470682B22FB88278E
:1017000080F9682B6D8B487055275595479583E078
:10171000369527958A95E1F7242B9870892F90E0CC
:101720009595879595958795822B8E8B82E097E08E
:101730008ADBF601349783E190E08C0F9D1FE80F60
:10174000F91F908092FA882780F990E04FDD80E0C1
:1017500097E079DB91FA882780F990E047DD8EEFFA
:1017600096E071DB892D817090E040DD8AEF96E094
:101770006ADB772019F084ED96E065DB97E0691667
:1017800069F1E1E09E1619F0F6E09F1227C08C8106
:101790004B8150E060E070E0BA0155274427782B78
:1017A0008981482B8A81582B8AEC96E0488F598F83
:1017B0006A8F7B8F48DB20E1488D598D6A8D7B8D48
:1017C00082E892E068DE82EC96E03DDB4D8550E0F9
:1017D00060E070E020E182E892E05DDE2FDB412CEA
:1017E00071E0C71AD108E108F10883E0C816D104F6
:1017F000E104F10409F0B8CE6B960FB6F894DEBFA1
:101800000FBECDBFDF91CF911F910F91FF90EF9051
:10181000DF90CF90BF90AF909F908F907F906F9010
:101820005F904F903F900895CF93DF93CDB7DEB791
:10183000AA970FB6F894DEBF0FBECDBF789484B5DB
:10184000826084BD84B5816084BD85B5826085BDBC
:1018500085B5816085BD80916E00816080936E004A
:10186000109281008091810082608093810080913C
:1018700081008160809381008091800081608093ED
:1018800080008091B10084608093B1008091B000AD
:1018900081608093B000809191008260809391007C
:1018A000809191008160809391008091900081608F
:1018B000809390008091A10082608093A10080912C
:1018C000A10081608093A1008091A000816080933D
:1018D000A0008091210182608093210180912101EB
:1018E000816080932101809120018160809320019B
:1018F00080917A00846080937A0080917A0082607F
:1019000080937A0080917A00816080937A00809140
:101910007A00806880937A001092C100109263036D
:1019200010926403109265031092660310922103D3
:1019300010922203109223031092240360ED77E0AB
:1019400080E090E0AED882E892E0909362038093CA
:1019500061034CDA2FB7F89480917D0290917E025A
:10196000A0917F02B09180022FBF809321039093BA
:101970002203A0932303B093240366E672E08091D0
:1019800061039091620372DD6AE070E080E090E0B4
:1019900088D881E08093350329DA1FB7F8948091C5
:1019A0008102811120C0EBE6F6E08491E1EBF6E0E4
:1019B0009491E82FF0E0EE0FFF1FE45EF94FA59140
:1019C000B491EC91E92319F461E085E32CD985E326
:1019D000A6DA8CB580618CBD8CB580648CBD84E347
:1019E0009EDA83E39CDA809181028F5F809381028B
:1019F0001FBF8091730393DA61E08091730313D961
:101A0000809174038CDA2091740330E0F901E75E71
:101A1000FD4F8491F901E458F94FB490F901EA5C63
:101A2000F94F1491112379F081110E94D604E12F0E
:101A3000F0E0EE0FFF1FE150FE4FA591B491EC9145
:101A4000EB2109F0E5C261E080917403ECD862E318
:101A500070E080E090E025D860E884E51FDA69EA6C
:101A600086E51CDA63E088E519DA68EE8AE516DABD
:101A700060E48AE213DA6DE382E210DA88E229DABE
:101A8000982F9370933021F0682F636088E206DA14
:101A90008FEF809375038093760380937703809311
:101AA00078038093790380937A038FEA92E0ECD9EC
:101AB00086E992E0C8D966E085E793E02AD8BED9E6
:101AC0008FE592E0E1D944244394512C82E08BA32A
:101AD00086E28FA360E88CE141DA87E08B8B812C72
:101AE000A12CAE014D5E5F4F6A01CE0183967C0151
:101AF0008E010F5F1F4F21E04C5E5F4F60E38CE073
:101B000073DA811108C08BA1823009F07EC28B8903
:101B100081117BC203C0823009F077C260E88CE19A
:101B20001DDA83E9898399249394B12C30E090E7FE
:101B3000392E23E0222E3032D9F43A829C818B81D7
:101B400089279D8189279E8189278F83AE01485FE0
:101B50005F4F67E0CE0101963AA712DA3AA58111EC
:101B6000DAC01BA22B8AFE0137963F0129E027C06D
:101B7000832F877887FF03C08150886F8F5F8BA387
:101B8000932F37FF02C097E0930F95959595959504
:101B900042E0490F282FF0E14F9F200D11242A83A6
:101BA00021E0811101C020E0240F66246394712C90
:101BB0006C0E7D1E640E711C87E0891B8B8BABA0A5
:101BC0006A2D6295607F6A0D8AE129A73AA766D9D6
:101BD000812CAE014D5D5F4F6A01CE0143967C01C1
:101BE000830129A54252510960E38CE0FDD93AA551
:101BF000823091F58CE16DD93AA585FD06C28F71D1
:101C000009F480E2482F50E0232F330F330B2417C1
:101C100035070CF0FAC1382FCA0101978770992750
:101C2000242F25952595259541E0420F21E0009729
:101C300009F420E0240FE1E0F0E0EC0FFD1FE20FDB
:101C4000F11DA20102C0440F551F8A95E2F7CA0197
:101C50009081892B80836FCF81115DC0303211F06C
:101C600030E26BCF8B81883819F433E023E002C077
:101C700032E024E080E090E0AB2CB12CFC01EA0DD6
:101C8000FB1DE959FC4F432F480FA1E0B0E0AC0F1A
:101C9000BD1FA40FB11D4C9141830196821770F3B3
:101CA0008B89833009F0B1C18BA18111AEC1AE0126
:101CB0004D5F5F4F61E0C30163D981112CC09B81EF
:101CC000F30181819813A1C19C81828198139DC1E8
:101CD000808182FF15C09394F2E09F1205C085E9D0
:101CE000898343E0B42E22CF43E0941205C087E9F4
:101CF000898336E0B32E1ACF51E0951286C111CFF9
:101D000080937203892D880F782F790D7F5F7093F0
:101D1000670310E003C0182F811177C188EF95E0A9
:101D200092D86091670388E693E00E94890586D87F
:101D30008CEE95E088D8E0917203EF77E13478F586
:101D4000F0E0E05FFD4F10811530E9F078F41230DB
:101D500049F128F4113019F58BEA93E025C01330CE
:101D600079F01430E1F481E693E01EC0173089F079
:101D700068F0183089F01F3F91F486EF92E014C0AC
:101D80008CE693E011C086E593E00EC084E393E017
:101D90000BC088E293E008C089E193E005C089EEBA
:101DA00092E002C083E893E06FD81350133018F02C
:101DB0008AEB95E01AC080E1E0E0F2E0DE015396A4
:101DC00001900D928A95E1F782E188A78CE995E070
:101DD0005BD867E080E6A4DA182F882341F080E81A
:101DE00095E031D8812F0E948C064ED80EC188E62E
:101DF00095E04AD897DB22D88FE495E024D82AE0F2
:101E000044E050E060E070E082E892E044DB8AE485
:101E100095E03AD8AE01485D5F4FBE016F5F7F4FDE
:101E200084E01CDA182F882339F083E395E00BD87F
:101E3000812F0E948C0628D884E295E004D82AE0FD
:101E400044E050E060E070E082E892E024DB82E26F
:101E500095E01AD860E1CE0101960E9489050E94A2
:101E60001E070E941E078EEF94E00ED867E081E601
:101E700057DA182F882319F082EE94E0B2CF89EC5C
:101E800094E00E9423072AE044E050E060E070E024
:101E900082E892E000DB84EC94E00E94440760E179
:101EA000CE0143960E9489050E941E0780EA8BA3FB
:101EB00084E08CA362E0CE0183967EDA182F811134
:101EC00005C060E1CE01439677DA182F112349F05F
:101ED0008CEA94E00E942307812F0E948C060E94C6
:101EE00044070E941E0783E994E00E9423072AE02A
:101EF00044E050E060E070E082E892E0CCDA8EE806
:101F000094E00E944407AE01485D5F4FBE016F5FE1
:101F10007F4F84E0A3D9182F882349F087E794E006
:101F20000E942307812F0E948C060E94440788E6A6
:101F300094E00E9423072AE044E050E060E070E073
:101F400082E892E0A8DA86E694E00E94440760E125
:101F5000CE0101960E9489050E941E0783E594E048
:101F60000E944407DE015396FE01319610E080E1A5
:101F70008E0F21919D91291301C01F5F8E13F9CF00
:101F800085E394E00E942307412F50E060E070E079
:101F90002AE082E892E07FDA0E941E07103119F4ED
:101FA00089E294E006C083E194E00E94440787EE52
:101FB00093E00E9444070E941E078FEC93E00E946A
:101FC0004407B0DA0E941E0780E58BA31CA2AE0175
:101FD0004B5D5F4F62E0CE0183960E94C007811186
:101FE00010C0812CA12CC12CD12CE12CF12C00E0B3
:101FF00010E024E0AE014D5D5F4F60E38CE00E9495
:10200000F40768E080E10E94AE070E949E045ECD66
:102010006FE082E00E944E0762E370E080E090E0B3
:102020000E94510582E00E94690784FDFBCF14CD18
:10203000E2E8F2E01382128288EE93E0A0E0B0E0E2
:1020400084839583A683B78385E592E0918380831B
:1020500085EC90E09587848784EC90E0978786876D
:1020600080EC90E0918B808B81EC90E0938B828B65
:1020700082EC90E0958B848B86EC90E0978B868B3E
:10208000118E128E138E148EEFE1F3E016821782FA
:102090001086118612861386148615861686178674
:1020A000108A118A128A138A148A158AE7E6F3E0E5
:1020B0008AE0848789E085870895EE0FFF1F881FD7
:1020C0008BBF0790F691E02D199481E090E0F89491
:1020D0002BC0FB01DC0102C001900D924150504029
:1020E000D8F70895A1E21A2EAA1BBB1BFD010DC053
:1020F000AA1FBB1FEE1FFF1FA217B307E407F507B8
:1021000020F0A21BB30BE40BF50B661F771F881F93
:10211000991F1A9469F760957095809590959B0129
:0C212000AC01BD01CF010895F894FFCF81
:10212C0001020304050607080809FF0B0C0D0E0F2E
:10213C0006080000FF00000004030000000000007F
:10214C000707000000000000050000000000000070
:10215C000100000000000000000000000000000072
:10216C000000000000000000000000000000000063
:10217C000200000000370464090104DF03F3037D4F
:10218C00042030002000564D4450565F317C315FA6
:08219C00564D4450560D0A0097
:00000001FF
