:10000000DCC200000BC3000009C3000007C30000EE
:1000100005C3000003C3000001C30000FFC20000CD
:10002000FDC20000FBC20000F9C20000F7C20000E0
:10003000F5C20000F3C20000F1C20000EFC20000F0
:10004000EDC20000EBC20000E9C20000E7C2000000
:10005000E5C20000E3C20000E1C200004FC500009D
:10006000DDC20000E6C40000BBC40000D7C200002F
:10007000D5C20000D3C20000D1C20000CFC2000030
:10008000CDC20000CBC20000C9C20000C7C2000040
:10009000C5C20000C3C20000C1C20000BFC2000050
:1000A000BDC20000BBC20000B9C20000B7C2000060
:1000B000B5C20000B3C20000B1C20000AFC2000070
:1000C000ADC20000ABC20000A9C20000A7C2000080
:1000D000A5C20000A3C20000A1C200009FC2000090
:1000E0009DC2000021042404130417041D045B04B2
:1000F00028042C04320436043A044004440448041E
:100100005B044E0452045604556E6B6E6F776E207E
:100110006572726F720041204D4946415245205030
:1001200049434320726573706F6E6465642077691C
:100130007468204E414B2E00546865204352435F43
:100140004120646F6573206E6F74206D6174636805
:100150002E00496E76616C696420617267756D6509
:100160006E742E00496E7465726E616C20657272D9
:100170006F7220696E2074686520636F64652E203D
:1001800053686F756C64206E6F7420686170706561
:100190006E2E004120627566666572206973206E5E
:1001A0006F742062696720656E6F7567682E0054F2
:1001B000696D656F757420696E20636F6D6D756E06
:1001C00069636174696F6E2E00436F6C6C69737341
:1001D000696F6E2064657465637465642E00457292
:1001E000726F7220696E20636F6D6D756E696361E9
:1001F00074696F6E2E00537563636573732E000010
:100200000020002300260029002C002F00320000CF
:1002100001000003010601090100000A0B02090C9C
:100220000D0E08070304010000000000000000009C
:1002300000000000000000000000000000000000BE
:10024000000000000012111000000000000000007B
:100250000000000000000000000000000000005549
:100260006E6B6E6F776E20747970650053414B2012
:10027000696E6469636174657320554944206973CC
:10028000206E6F7420636F6D706C6574652E004D09
:10029000494641524520544E5033585858004D4914
:1002A0004641524520506C7573004D4946415245B8
:1002B00020556C7472616C69676874206F72205588
:1002C0006C7472616C696768742043004D494641E3
:1002D000524520344B42004D494641524520314B56
:1002E00042004D4946415245204D696E692C2033EC
:1002F0003230206279746573005049434320636F44
:100300006D706C69616E7420776974682049534F11
:100310002F49454320313830393220284E46432971
:10032000005049434320636F6D706C69616E7420A7
:10033000776974682049534F2F494543203134343D
:1003400034332D340043757272656E7420646174A9
:100350006120696E20736563746F723A004D49467F
:100360004152455F526561642829206661696C6568
:10037000643A2000202E2E2E0052656164696E675B
:1003800020646174612066726F6D20626C6F636BB4
:1003900020004D49464152455F57726974652829CE
:1003A000206661696C65643A2000202E2E2E00576D
:1003B000726974696E67206461746120696E746F1C
:1003C00020626C6F636B200043757272656E7420DF
:1003D0006461746120696E20736563746F723A00A2
:1003E0005043445F41757468656E746963617465F8
:1003F0002829206661696C65643A2000417574683B
:10040000656E7469636174696E67207573696E6780
:10041000206B657920412E2E2E005468697320735D
:10042000616D706C65206F6E6C7920776F726B7385
:100430002077697468204D494641524520436C61DC
:10044000737369632063617264732E005049434380
:1004500020747970653A20004361726420554944E4
:100460003A0000002200250028002B002E00310059
:10047000340002010000050108010B010000210009
:10048000240027002A002D00300033000101000065
:10049000040107010A010505050507050808080804
:1004A000020202020A0A080804040404010101010C
:1004B0000101010103030303030303030407070707
:1004C0000C0C0C0C0C0C0C0C0202020206060606AC
:1004D000060606060B0B0B0B0B0B0B0B0102102079
:1004E000200808102040102040800201020108046A
:1004F00002010102040810204080804020100804FE
:100500000201800402018040201008040201080456
:10051000020101020408102040800102040810209A
:100520004080204164723D3078002056616C7565D2
:100530003D30780020496E76657274656420616391
:1005400063657373206269747320646964206E6FDD
:1005500074206D61746368212000205D20002000FC
:100560002000205B2000200020002030004D494664
:100570004152455F526561642829206661696C6556
:10058000643A20005043445F41757468656E746935
:10059000636174652829206661696C65643A20008E
:1005A00020200020202000202020202020200020AB
:1005B0002020002020200000EF0F11241FBECFEFCD
:1005C000D1E2DEBFCDBF00E00CBF12E0A0E0B2E0A0
:1005D000EAEDF0E200E00BBF02C007900D92A838F0
:1005E000B107D9F723E0A8E8B2E001C01D92A33912
:1005F000B207E1F712E0CDEDD2E000E006C02197AE
:100600000109802FFE010E943410CC3DD10780E00B
:100610000807A9F70E94530B0C946B10F1CCFC0156
:10062000918D828D981761F0828DDF01A80FB11D29
:100630005D968C91928D9F5F9F73928F90E008954D
:100640008FEF9FEF0895FC01918D828D981731F007
:10065000828DE80FF11D858D90E008958FEF9FEF5B
:100660000895FC01918D228D892F90E0805C9F4F31
:10067000821B91098F739927089580EA92E0F1DF38
:1006800021E0892B09F420E0822F0895FC01848D5C
:10069000DF01A80FB11DA35ABF4F2C91848D90E0AC
:1006A00001968F739927848FA689B7892C93A08987
:1006B000B1898C9180648C93938D848D981306C03E
:1006C0000288F389E02D80818F7D80830895EF92E9
:1006D000FF920F931F93CF93DF93EC0181E0888FFC
:1006E0009B8D8C8D981305C0E889F989808185FDE3
:1006F00023C0F62E0B8D10E00F5F1F4F0F731127D5
:10070000E02E8C8DE8120BC00FB607FCFACFE889FB
:10071000F989808185FFF5CFCE01B8DFF2CF8B8DCF
:10072000FE01E80FF11DE35AFF4FF0820B8FEA89BB
:10073000FB898081806207C0EE89FF896083E88938
:10074000F98980818064808381E090E0DF91CF919E
:100750001F910F91FF90EF900895CF93DF93EC01DD
:10076000888D8823C1F0EA89FB89808185FD05C0D9
:10077000A889B9898C9186FD0EC00FB607FCF5CF0C
:10078000808185FFF2CFA889B9898C9185FFEDCF53
:10079000CE017CDFE8CFDF91CF91089580E090E03B
:1007A000892B19F06ADF811125C080E090E0892B48
:1007B00041F080E090E0892B21F00E94000081113F
:1007C0001CC080E090E0892B41F080E090E0892B14
:1007D00021F00E940000811113C080E090E0892B7D
:1007E000A1F080E090E0892B81F00E94000081114F
:1007F0000AC008950E940000D8CF0E940000E1CFF7
:100800000E940000EACF0C940000089590E0FC01E3
:100810003197E231F10508F04EC08827EE58FF4FBE
:100820008F4F0C943410809180008F7703C080919B
:1008300080008F7D80938000089580918000877F65
:10084000F9CF84B58F7702C084B58F7D84BD0895BC
:100850008091B0008F7703C08091B0008F7D80932E
:10086000B0000895809190008F7707C0809190002C
:100870008F7D03C080919000877F809390000895C2
:100880008091A0008F7707C08091A0008F7D03C06A
:100890008091A000877F8093A0000895809120011F
:1008A0008F7707C0809120018F7D03C08091200148
:1008B000877F8093200108953FB7F89480918D023F
:1008C00090918E02A0918F02B091900226B5A89BC4
:1008D00005C02F3F19F00196A11DB11D3FBFBA2FD2
:1008E000A92F982F8827820F911DA11DB11DBC0132
:1008F000CD0142E0660F771F881F991F4A95D1F7F7
:1009000008958F929F92AF92BF92CF92DF92EF9213
:10091000FF926B017C01D0DF4B015C01C114D1045B
:10092000E104F104E9F0C8DFDC01CB018819990981
:10093000AA09BB09883E9340A105B10578F321E0DF
:10094000C21AD108E108F10888EE880E83E0981EEB
:10095000A11CB11CC114D104E104F10421F7DECFC4
:10096000FF90EF90DF90CF90BF90AF909F908F90CF
:1009700008952FB7F8946091890270918A0280914E
:100980008B0290918C022FBF0895EF92FF920F93EC
:100990001F93CF93DF93162F082FEC018C2F801B12
:1009A0008117B8F47E018881803118F066E872E022
:1009B00002C061E572E080EA92E074D62196F70108
:1009C000408150E060E070E020E180EA92E09DD458
:1009D000E5CFDF91CF911F910F91FF90EF90089598
:1009E0001F920F920FB60F9211240BB60F922F93F6
:1009F0003F934F935F936F937F938F939F93AF93A7
:100A0000BF93EF93FF9380EA92E040DEFF91EF9176
:100A1000BF91AF919F918F917F916F915F914F9116
:100A20003F912F910F900BBE0F900FBE0F901F9014
:100A300018951F920F920FB60F9211240BB60F92BA
:100A40002F938F939F93EF93FF93E091B002F091D8
:100A5000B1028081E091B602F091B70282FD12C02E
:100A600090818091B9028F5F8F732091BA028217B3
:100A700051F0E091B902F0E0E056FD4F958F809380
:100A8000B90201C08081FF91EF919F918F912F91C9
:100A90000F900BBE0F900FBE0F901F9018951F93D5
:100AA000CF93DF93282F30E0F901E75EFD4F84916B
:100AB000F901E452FB4FD491F901EA56FB4FC4917E
:100AC000CC23C1F0162F8111A1DEEC2FF0E0EE0F48
:100AD000FF1FEE59FB4FA591B4918FB7F8941111F8
:100AE00005C09C91ED2FE095E92302C0EC91ED2B20
:100AF000EC938FBFDF91CF911F9108951F920F92BA
:100B00000FB60F9211242F933F938F939F93AF9320
:100B1000BF938091890290918A02A0918B02B0913B
:100B20008C023091880223E0230F2D3720F40196A8
:100B3000A11DB11D05C026E8230F0296A11DB11D00
:100B4000209388028093890290938A02A0938B025B
:100B5000B0938C0280918D0290918E02A0918F02B1
:100B6000B09190020196A11DB11D80938D029093CA
:100B70008E02A0938F02B0939002BF91AF919F918C
:100B80008F913F912F910F900FBE0F901F9018954E
:100B90008430D9F050F4813091F030F1823091F00E
:100BA0008330F9F48FEA91E008958630A1F080F067
:100BB0008730A1F08F3FA9F486E191E008958EED92
:100BC00091E0089589EC91E0089583E991E008951A
:100BD00084E691E0089582E591E0089588E391E04C
:100BE000089588E091E0089586EF91E008950895D2
:100BF0008EBD00000DB407FEFDCF8EB508958CBDEF
:100C00009DBD0895CF92DF92FF920F931F93CF93D4
:100C1000DF931F92CDB7DEB7082F162F83E590E044
:100C20007983EDDF60E08091910339DF82E1E0DFDD
:100C3000F12EC12E7981D72E8C2D8F19801728F493
:100C4000F60181916F01D4DFF7CF61E080919103CC
:100C500026DF0F90DF91CF911F910F91FF90DF90D2
:100C6000CF90C5CFE0EAF2E0A089B18982E08C9311
:100C7000A485B5851C92A685B7858FEC8C93108EC4
:100C8000A489B58986E08C93A289B3898C9180610F
:100C90008C93A289B3898C9188608C93A289B38943
:100CA0008C9180688C930288F389E02D80818F7D00
:100CB000808308950F931F93CF93DF93082F162FF0
:100CC00083E590E09CDFC5E8D3E060E08C85E7DE5B
:100CD000802F8E778DDF812F8BDF61E08C85DFDECB
:100CE000DF91CF911F910F9182CF0F931F93CF93DD
:100CF000C82F83E590E083DF05E813E060E0F801AA
:100D00008485CDDE8C2F8E77806872DF80E070DF87
:100D1000C82F61E0F8018485C2DE69DF8C2FCF9196
:100D20001F910F910895CF93C82FDFDF682F606860
:100D30008C2FCF91BFCF90E0FC01E452FB4F249168
:100D4000FC01EA56FB4F8491882399F090E0880FCC
:100D5000991FFC01E458FB4FA591B491FC01EE5999
:100D6000FB4F859194918FB7F894EC91E22BEC9323
:100D70008FBF08951F93CF93DF931F92CDB7DEB738
:100D8000182F6983B2DF698160956823812F0F90E6
:100D9000DF91CF911F918ECFEF92FF920F931F9310
:100DA000CF93DF937C01C62F8A0160E082E082DF6F
:100DB00064E08AE07FDF84E1B6DFB7018C2F22DFB9
:100DC00063E082E077DFC8E8D3E18AE08EDF82FD6E
:100DD00004C02197D1F783E00CC060E082E06ADFB5
:100DE00084E483DFF801808382E47FDFF80181837C
:100DF00080E0DF91CF911F910F91FF90EF900895C8
:100E00002F923F924F925F926F927F928F929F921A
:100E1000AF92BF92CF92DF92EF92FF920F931F9308
:100E2000CF93DF9300D0CDB7DEB7982E762E2A0170
:100E3000C114D10419F0F601608101C060E0662E92
:100E4000F0E1AF9E600C112460E082E02B8332DF82
:100E50006FE788E02FDF84E166DFB2012B81822F0C
:100E6000D1DE662D8AE126DF692D82E023DF8CE06A
:100E7000981202C08AE157DF90ED492E97E0592E73
:100E800088E033DF982F972139F480FD9CC0E1E0A2
:100E90004E1A5108A9F797C08CE027DF382E8371CE
:100EA00009F093C00115110509F45BC0E114F104C8
:100EB00009F457C084E119DF982EF7018081891564
:100EC00008F485C09082992009F442C083E590E03F
:100ED00096DE60E080919103E2DD9A9482E988DEFB
:100EE000202E380144244394512C862D82198915D3
:100EF00018F5811119C0AA20B9F08A2DB12C8830BB
:100F000048F49201082E01C0220F0A94EAF7B22A8F
:100F10008F5FF5CF82E96CDE2B2D2095F801908153
:100F200092238B21892B03C082E962DEF301808347
:100F3000FFEF6F1A7F0AD9CF5801A90CB11C80E0CE
:100F400057DEF501808361E080919103A8DD4FDEDB
:100F500088E1CBDE8770B82EC114D10411F0F60100
:100F6000808333FC36C001151105A9F1E114F104A9
:100F700091F1882081F1F7016081613021F4F4E082
:100F8000BF1203C01EC0623010F487E025C0B1104C
:100F9000FCCF6250AE014F5F5F4FC801FDDE811193
:100FA0001BC0F7018081080F111DF8013297908155
:100FB00089819813EACF319690818A819813E5CF81
:100FC0000AC08FEF09C083E007C081E005C084E05C
:100FD00003C082E001C080E00F900F900F90DF917E
:100FE000CF911F910F91FF90EF90DF90CF90BF9026
:100FF000AF909F908F907F906F905F904F903F90B9
:101000002F9008950F931F93CF93DF938C01C0E02F
:10101000D0E0F801EC0FFD1F6491662371F0E091C0
:10102000A002F091A1020190F081E02D80EA92E00F
:101030001995892B11F02196ECCFCE01DF91CF913C
:101040001F910F910895CF92DF92EF92FF92CF936D
:10105000DF936C01990FEE08FF08F7FE20C0E091C6
:10106000A002F091A1020190F081E02D6DE280EAF2
:1010700092E01995EC0144275527BA014C195D09F6
:101080006E097F092AE080EA92E03FD18C0F9D1F14
:10109000DF91CF91FF90EF90DF90CF9008952AE0FD
:1010A000B701A60180EA92E0DF91CF91FF90EF9027
:1010B000DF90CF902AC1CF93DF93A4DFEC0180EAC9
:1010C00092E06AD18C0F9D1FDF91CF9108958F928E
:1010D000AF92CF92DF92EF92FF920F931F93CF9335
:1010E000DF9361157105E9F0FA0190819231C8F042
:1010F0007A01EB0190E398838983AB014E5F5F4FE8
:1011000062E0CE0149DE81110DC088248394A12CB8
:10111000C12CD12C8E0124E0AE0160E38CE070DEA6
:1011200001C084E0DF91CF911F910F91FF90EF906C
:10113000DF90CF90AF908F9008958F92AF92CF9223
:10114000DF92EF92FF920F931F93CF93DF93CDB770
:10115000DEB72C970FB6F894DEBF0FBECDBF90E67A
:1011600099838A83DE011396EAE9F2E086E08E0F26
:1011700091919D938E13FCCFE0918503F0E0EE57A3
:10118000FC4FDE011996CE010D9621912D93A817E3
:10119000B907D9F7812CA12CC12CD12CE12CF12C31
:1011A00000E010E02CE0AE014F5F5F4F60E18EE0A9
:1011B00027DE2C960FB6F894DEBF0FBECDBFDF91B1
:1011C000CF911F910F91FF90EF90DF90CF90AF9054
:1011D0008F900895CF92DF92EF92FF920F931F931B
:1011E000CF93DF936C017A018B01C0E0D0E0CE1584
:1011F000DF0589F0D8016D918D01D601ED91FC914B
:101200000190F081E02DC6011995892B11F47E0122
:1012100002C02196ECCFC701DF91CF911F910F91B2
:10122000FF90EF90DF90CF90089526D78F92AF92E6
:10123000CF92DF92EF92FF920F931F93CF93DF93A2
:10124000CDB7DEB764970FB6F894DEBF0FBECDBF43
:10125000162FE62EF12CA701BC01CE01019610D766
:1012600041E050E04C0F5D1F4E0D5F1D612FCE0120
:10127000019692DD811123C082E18C8B1B8A22E0D2
:10128000210F812CA12CCE0143966C0101967C018B
:101290008E010F5F1F4FA80160E38CE0B1DD81116B
:1012A0000EC08C89813051F48B89843039F481E00F
:1012B00099819A3009F480E0819501C081E06496BB
:1012C0000FB6F894DEBF0FBECDBFDF91CF911F9157
:1012D0000F91FF90EF90DF90CF90AF908F90089597
:1012E0006115710579F0FB0101900020E9F7319754
:1012F000AF01461B570BDC01ED91FC910280F3819D
:10130000E02D199480E090E008954F925F926F92E3
:101310007F92EF92FF920F931F93CF93DF93CDB7FE
:10132000DEB7A1970FB6F894DEBF0FBECDBF7C012C
:10133000FA01CB0119A2223008F42AE08E010F5DD8
:101340001F4F422E512C612C712CBF01A301920121
:10135000A0D6F901CA01015011096A3014F4605D88
:1013600001C0695CD8016C93232B242B252B69F7D2
:10137000B801C701B5DFA1960FB6F894DEBF0FBE66
:10138000CDBFDF91CF911F910F91FF90EF907F9094
:101390006F905F904F90089563E672E0A1CF3F9207
:1013A0004F925F926F927F928F929F92AF92BF9275
:1013B000CF92DF92EF92FF920F931F93CF93DF9321
:1013C000CDB7DEB76B970FB6F894DEBF0FBECDBFBB
:1013D000A7E0CA2ED12CE12CF12C44244394B2E195
:1013E0005B2E6C2C442071F083EB95E00BDE2AE041
:1013F00041E050E060E070E080EA92E086DF8FEA52
:1014000095E002C087EA95E0FDDD83EA95E0FADD2C
:101410002AE0B701A60180EA92E077DF80EA95E052
:10142000F1DD442061F084E088DEB82E882339F0B5
:1014300084E895E0E7DD8B2DABDB3DDE1BC15F8AE9
:10144000AE01495E5F4FBE016F5F7F4F862D3FDE6D
:10145000B82E882339F08DE695E0D4DD8B2D98DB0E
:101460002ADEFCC0CE0101965C01312C4501F5015C
:101470008081803118F48AE695E002C088E695E024
:10148000C1DDFFEFAF1ABF0AF401408150E060E018
:1014900070E020E180EA92E038DF832D83708330B2
:1014A00019F486E695E0AEDD3394F0E13F12DECF2D
:1014B000442009F477C06885462F50E0E4E0559554
:1014C0004795EA95E1F79985892F8F70292F30E0AC
:1014D000F4E035952795FA95E1F7EF81AE2FAF70DF
:1014E000B0E0A095B095AF70BB274A175B07D1F469
:1014F000A82FB0E0F0E070EFE72774E0F695E795ED
:101500007A95E1F7AE17BF0769F46F7070E06095E8
:1015100070956F707727772473942617370721F417
:10152000712C02C077247394E22FE170092F0170AF
:1015300010E0B801660F771FE62BBA0161707727BC
:10154000660F771F660F771F6E2B6B8BBA01627069
:101550007727660F771F21FB772770F9672B82703B
:10156000682B6C8B692F647070E075956795842F7C
:101570008470682B22FB882780F9682B6D8B48705C
:1015800055275595479583E0369527958A95E1F738
:10159000242B9870892F90E0959587959595879540
:1015A000822B8E8B82E695E02DDDF601349783E168
:1015B00090E08C0F9D1FE80FF91F908092FA88270A
:1015C00080F990E040DD80E695E01CDD91FA882707
:1015D00080F990E038DD8EE595E014DD892D81708D
:1015E00090E031DD8AE595E00DDD772019F084E3A8
:1015F00095E008DD97E0691669F1E1E09E1619F0C3
:10160000F6E09F1227C08C814B8150E060E070E0D3
:10161000BA0155274427782B8981482B8A81582B7A
:101620008AE295E0488F598F6A8F7B8FEBDC20E14F
:10163000488D598D6A8D7B8D80EA92E066DE82E26C
:1016400095E0E0DC4D8550E060E070E020E180EA6C
:1016500092E05BDE80EA92E09FDE412C71E0C71AE7
:10166000D108E108F10883E0C816D104E104F104CF
:1016700009F0B7CE6B960FB6F894DEBF0FBECDBFA4
:10168000DF91CF911F910F91FF90EF90DF90CF905E
:10169000BF90AF909F908F907F906F905F904F9092
:1016A0003F9008951DCECF93DF93CDB7DEB7AA97B5
:1016B0000FB6F894DEBF0FBECDBF789484B58260BC
:1016C00084BD84B5816084BD85B5826085BD85B5E6
:1016D000816085BD80916E00816080936E00109264
:1016E00081008091810082608093810080918100DF
:1016F0008160809381008091800081608093800070
:101700008091B10084608093B1008091B0008160CD
:101710008093B000809191008260809391008091CD
:10172000910081608093910080919000816080930E
:1017300090008091A10082608093A1008091A1001F
:1017400081608093A1008091A00081608093A000BF
:10175000809121018260809321018091210181602B
:1017600080932101809120018160809320018091EC
:101770007A00846080937A0080917A0082608093FE
:101780007A0080917A00816080937A0080917A005B
:10179000806880937A001092C100109281031092A9
:1017A0008203109283031092840310923F031092DD
:1017B0004003109241031092420360ED77E080E015
:1017C00090E09FD880EA92E09093800380937F031B
:1017D00049DACFD860933F0370934003809341036D
:1017E0009093420364E572E080917F0390918003BF
:1017F00059DF6AE070E080E090E083D881E0809378
:1018000053038DE098DA2EDA1FB7F8948091910295
:10181000811120C0EBECF4E08491E1E1F5E09491DA
:10182000E82FF0E0EE0FFF1FE458FB4FA591B491B5
:10183000EC91E92319F461E085E331D985E37BDAA2
:101840008CB580618CBD8CB580648CBD84E373DA0B
:1018500083E371DA809191028F5F809391021FBFC1
:101860008091910368DA61E08091910318D98091A9
:10187000920361DA2091920330E0F901E75EFD4FB7
:101880008491F901E452FB4FB490F901EA56FB4F01
:101890001491112379F081110E940604E12FF0E0E8
:1018A000EE0FFF1FE150FE4FA591B491EC91EB219B
:1018B00009F085C361E080919203F1D862E370E0A2
:1018C00080E090E01ED860E884E5F4D969EA86E516
:1018D000F1D963E088E5EED968EE8AE5EBD960E4FA
:1018E0008AE2E8D96DE382E2E5D988E2FED9982F51
:1018F0009370933021F0682F636088E2DBD98FEF1B
:1019000080939A0280939B0280939C0280939D0215
:1019100080939E0280939F0222242394312C29D805
:10192000672B682B692B39F424D862307105810547
:10193000910508F400C11DD8609396027093970238
:101940008093980290939902409092025090930253
:101950006090940270909502641575058605970550
:1019600040F4609392027093930280939402909358
:101970009502409092025090930260909402709071
:1019800095029B01AC012419350946095709290123
:101990003A013AEF431651046104710408F4CBC0D4
:1019A00060939202709393028093940290939502B5
:1019B00084EF91E0A0E0B0E080934B0390934C0360
:1019C000A0934D03B0934E0310924F031092500317
:1019D000109251031092520380914303909144035B
:1019E000A0914503B0914603809347039093480329
:1019F000A0934903B0934A030E94B9046093430340
:101A00007093440380934503909346030E94B90466
:101A100060933F037093400380934103909342038C
:101A20000E94B9042B013C0166E672E080917F03BD
:101A30009091800337DE2AE041E050E060E070E002
:101A400080917F039091800360DC6DE672E080916D
:101A50007F039091800326DE2AE0B301A2018091EA
:101A60007F039091800351DC6FE672E080917F03E9
:101A70009091800317DE8091430390914403A091DD
:101A80004503B0914603B301A201481B590B6A0BF1
:101A90007B0B2AE080917F039091800336DC6FE618
:101AA00072E080917F0390918003FCDD40914303BD
:101AB0005091440360914503709146038091470320
:101AC00090914803A0914903B0914A03481B590BD8
:101AD0006A0B7B0B2AE080917F039091800315DCD9
:101AE00061E772E080917F0390918003DBDD0E94CB
:101AF000B904AB01BC012AE080917F03909180037F
:101B000004DCA0907F03B090800363E772E0C5011E
:101B1000E7DBC50141DC62E070E080E090E00E941C
:101B200081040E94B904609343037093440380933B
:101B300045039093460382E08BA386E28FA360E87F
:101B40008CE118D987E08B8B2E0143E1440E511CA8
:101B5000812CA12C6201CE0183967C018E010F5F46
:101B60001F4F21E0AE01495D5F4F60E38CE048D933
:101B7000811107C08BA1823031F48B89811103C0A0
:101B800006C0823021F061E08DE00E944F0560E8E0
:101B90008CE1F0D883E9898399249394B12C70E087
:101BA0007032F1F490E79A839C818B8189279D8123
:101BB00089279E8189278F83AE01485F5F4F67E049
:101BC000CE0101967AA7E8D87AA58111D1C01BA2CF
:101BD000E3E0EB8B9E01295F3F4F390129E01EC0F6
:101BE000972F97709BA3472F45954595459582E084
:101BF000840F292F30E1839F200D11242A8321E0B7
:101C0000911101C020E0280F66246394712C6C0EA2
:101C10007D1E680E711C87E0841B8B8BABA06A2D28
:101C20006295607F6A0D8AE129A77AA743D8812C43
:101C3000AE014D5D5F4F6A017201830129A54252D9
:101C4000510960E38CE0DCD87AA5823091F58CE113
:101C50004CD87AA585FDB0C18F7109F480E2482F78
:101C600050E0672F770F770B641775070CF0A4C14E
:101C7000782FCA01019787709927242F25952595DC
:101C8000259541E0420F21E0009709F420E0240F60
:101C9000E1E0F0E0EC0FFD1FE20FF11D910102C049
:101CA000220F331F8A95E2F7C9019081892B808327
:101CB00077CF81115DC0703211F070E273CF8B81EC
:101CC000883819F042E024E002C043E023E080E0DD
:101CD00090E06B2D70E0FC01E60FF71FEB57FC4F17
:101CE000542F580FA1E0B0E0AC0FBD1FA50FB11DE0
:101CF0005C9151830196821770F38B89833009F0D0
:101D00005BC18BA1811158C1AE014D5F5F4F61E096
:101D1000C30142D881112CC09B81F30181819813AA
:101D20004BC19C818281981347C1808182FF15C07D
:101D30009394F2E09F1205C085E9898333E0B32EC6
:101D40002ECF23E0921205C087E9898326E0B22EC8
:101D500026CF31E0931230C11DCF80939003892D9F
:101D6000880F382F390D3F5F3093850310E003C093
:101D7000182F811121C161E08DE00E944F0564EFB1
:101D800071E080E090E00E94810460E08DE00E94BC
:101D90004F0564EF71E080E090E00E94810488E5E7
:101DA00094E030D96091850386E893E00E94C504F1
:101DB00080EA92E0F1DA8CE494E024D9E091900397
:101DC000EF77E13478F5F0E0E050FE4F1081153008
:101DD000E9F078F4123049F128F4113019F581E274
:101DE00093E025C0133079F01430E1F487ED92E0F0
:101DF0001EC0173089F068F0183089F01F3F91F449
:101E00008CE692E014C082EE92E011C08CEC92E07D
:101E10000EC08AEA92E00BC08EE992E008C08FE81B
:101E200092E005C08FE592E002C089EF92E043D9CD
:101E30001350133018F08AE194E021C080E1F201E0
:101E400011928A95E9F784E68B8B8CE98C8B80E282
:101E50008D8B8CED8E8B81E08F8B84EF888F82E170
:101E600088A78CEF93E027D987E067D9182F8823BC
:101E700041F080EE93E0C6D8812F0E94C8051BD99F
:101E80009BC088EC93E0BED88ADA80EA92E084DADC
:101E90008FEA93E0B7D82AE044E050E060E070E0D9
:101EA00080EA92E032DA8AEA93E005D96AE772E0E2
:101EB00080EA92E0F7DB2AE044EF51E060E070E076
:101EC00080EA92E022DA80EA92E066DA60E1C2011A
:101ED0000E94C50480EA898384E08A8362E0CE019F
:101EE0000196A4D9182F811104C060E1C2019ED9C6
:101EF000182F112339F082E993E084D8812F0E94B2
:101F0000C805D9D880EA92E047DA89E793E07AD821
:101F10002AE044E050E060E070E080EA92E0F5D929
:101F200084E793E0C8D8AE01485D5F4FBE016F5FA4
:101F30007F4F84E0CCD8182F882339F08DE593E0CB
:101F400061D8812F0E94C805B6D885E493E0B3D844
:101F500026DA80EA92E020DA80E58BA31CA2AE01AB
:101F60004B5D5F4F62E0CE0183960E94CC068111EB
:101F700010C0812CA12CC12CD12CE12CF12C00E023
:101F800010E024E0AE014D5D5F4F60E38CE00E9405
:101F9000000768E080E10E94BA064D8150E0542FAE
:101FA00044278E81482B60E070E02AE080EA92E0CE
:101FB000ACD980EA92E0F0D90E94CE03B0CC6FE0B9
:101FC00082E00E945A0662E370E080E090E00E94A6
:101FD000810482E00E94750684FDFBCF74CCE0EAA8
:101FE000F2E01382128288EE93E0A0E0B0E08483F6
:101FF0009583A683B78385E492E09183808385EC03
:1020000090E09587848784EC90E09787868780ECC2
:1020100090E0918B808B81EC90E0938B828B82ECB3
:1020200090E0958B848B86EC90E0978B868B118E5D
:10203000128E138E148EEDE3F3E016821782108653
:102040001186128613861486158616861786108AC0
:10205000118A128A138A148A158AE5E8F3E085E367
:10206000848785E085870895EE0FFF1F881F8BBF4B
:102070000790F691E02D199481E090E0F8942BC040
:10208000FB01DC0102C001900D9241505040D8F795
:102090000895A1E21A2EAA1BBB1BFD010DC0AA1FA9
:1020A000BB1FEE1FFF1FA217B307E407F50720F0C1
:1020B000A21BB30BE40BF50B661F771F881F991F3C
:1020C0001A9469F760957095809590959B01AC0185
:0A20D000BD01CF010895F894FFCF81
:1020DA0006080000FF0000000403000000000000E2
:1020EA0007070000000000000500000000000000D3
:1020FA0001000000000000000000000000000000D5
:10210A0000000000000000000000000000000000C5
:10211A0002000000006703EA0831030F032303AD3E
:10212A0003203000564D4450565F317C315F564D86
:10213A004450560D0A00564D4450455F003A323A13
:10214A00007C005F564D44504500526F6F6D204E23
:08215A00756D6265723A200008
:020000023000CC
:10E000000D9489F10D94B2F10D94B2F10D94B2F129
:10E010000D94B2F10D94B2F10D94B2F10D94B2F1F0
:10E020000D94B2F10D94B2F10D94B2F10D94B2F1E0
:10E030000D94B2F10D94B2F10D94B2F10D94B2F1D0
:10E040000D94B2F10D94B2F10D94B2F10D94B2F1C0
:10E050000D94B2F10D94B2F10D94B2F10D94B2F1B0
:10E060000D94B2F10D94B2F10D94B2F10D94B2F1A0
:10E070000D94B2F10D94B2F10D94B2F10D94B2F190
:10E080000D94B2F10D94B2F10D94B2F10D94B2F180
:10E090000D94B2F10D94B2F10D94B2F10D94B2F170
:10E0A0000D94B2F10D94B2F10D94B2F10D94B2F160
:10E0B0000D94B2F10D94B2F10D94B2F10D94B2F150
:10E0C0000D94B2F10D94B2F10D94B2F10D94B2F140
:10E0D0000D94B2F10D94B2F10D94B2F10D94B2F130
:10E0E0000D94B2F141546D656761323536300041AF
:10E0F000726475696E6F206578706C6F72657220DE
:10E1000073746B3530305632206279204D4C530099
:10E11000426F6F746C6F616465723E004875683F52
:10E1200000436F6D70696C6564206F6E203D200048
:10E130004350552054797065202020203D20005FF9
:10E140005F4156525F415243485F5F3D2000415658
:10E1500052204C696243205665723D20004743437C
:10E160002056657273696F6E203D20004350552024
:10E1700049442020202020203D20004C6F7720663D
:10E18000757365202020203D20004869676820665F
:10E190007573652020203D200045787420667573D6
:10E1A00065202020203D20004C6F636B2066757336
:10E1B000652020203D20004D617220203720323024
:10E1C000313300312E362E3800342E332E350056A2
:10E1D00023202020414444522020206F7020636F70
:10E1E00064652020202020696E73747275637469E1
:10E1F0006F6E2061646472202020496E74657272B3
:10E20000757074006E6F20766563746F7200726A49
:10E210006D702020006A6D70200057686174207056
:10E220006F72743A00506F7274206E6F7420737541
:10E2300070706F72746564004D7573742062652030
:10E2400061206C6574746572002000577269747483
:10E25000696E672045450052656164696E672045B7
:10E26000450045452065727220636E743D00504F35
:10E27000525400303D5A65726F2061646472003FF1
:10E280003D43505520737461747300403D454550C3
:10E29000524F4D207465737400423D426C696E6B41
:10E2A000204C454400453D44756D70204545505215
:10E2B0004F4D00463D44756D7020464C415348001B
:10E2C000483D48656C70004C3D4C69737420492F83
:10E2D0004F20506F72747300513D51756974005234
:10E2E0003D44756D702052414D00563D73686F7707
:10E2F00020696E7465727275707420566563746FF0
:10E30000727300593D506F727420626C696E6B00BD
:10E310002A0011241FBECFEFD1E2DEBFCDBF01E046
:10E320000CBF12E0A0E0B2E0EEE1FDEF03E00BBFB6
:10E3300002C007900D92A030B107D9F712E0A0E01B
:10E34000B2E001C01D92AE30B107E1F70F9460F367
:10E350000D948DFE01E20EBF0FEF0DBF11241FBE05
:10E360000D9460F30D9400F020E030E040ED57E0B4
:10E3700005C0FA013197F1F72F5F3F4F2817390792
:10E38000C0F308959C01260F311DC901A0E0B0E043
:10E390002F5F3F4FABBFFC018791882361F08093D3
:10E3A000C6008091C00086FFFCCF8091C0008064D1
:10E3B0008093C000EACF08958DE08093C6008091DD
:10E3C000C00086FFFCCF8091C00080648093C000B5
:10E3D0008AE08093C6008091C00086FFFCCF8091C8
:10E3E000C00080648093C00008950F94C2F10F9420
:10E3F000DCF10895FC019081992359F09093C600B7
:10E400008091C00086FFFCCF8091C0008064809323
:10E41000C0003196992379F70895282F982F929567
:10E420009F70892F805D8A3308F0895F8093C600D2
:10E430008091C00086FFFCCF8091C00080648093F3
:10E44000C000822F8F70982F905D9A3308F0995FEB
:10E450009093C6008091C00086FFFCCF8091C000E1
:10E4600080648093C00008959C01FB01853691056E
:10E470001CF46330710594F0C90164E670E00F94F8
:10E480002EFE605D7F4F6093C6008091C00086FFC6
:10E49000FCCF8091C00080648093C0002B30310598
:10E4A00014F43297B4F0C90164E670E00F942EFEC4
:10E4B0006AE070E00F942EFE605D7F4F6093C600AF
:10E4C0008091C00086FFFCCF8091C0008064809363
:10E4D000C000C9016AE070E00F942EFEC0968093E0
:10E4E000C6008091C00086FFFCCF8091C000806490
:10E4F0008093C00008951F93182F8EE692EE60E07F
:10E500000F94C2F11093C6008091C00086FFFCCF2B
:10E510008091C00080648093C0000F94DCF11F9153
:10E5200008952F923F924F925F926F927F928F92B7
:10E530009F92AF92BF92CF92DF92EF92FF920F9392
:10E540001F93DF93CF93CDB7DEB762970FB6F894E2
:10E55000DEBF0FBECDBF382E622ECA01DB015C01CB
:10E560006D01772420E2222E2E010894411C511CBB
:10E570008BC081E0A81680E0B80681E0C80680E084
:10E58000D80628F0C601AA27BB270F940DF2BB2797
:10E59000AD2D9C2D8B2D0F940DF28A2D0F940DF225
:10E5A0002092C6008091C00086FFFCCF8091C00001
:10E5B00080648093C0009DE29093C6008091C0006B
:10E5C00086FFFCCF8091C00080648093C0002092C1
:10E5D000C6008091C00086FFFCCF8091C00080649F
:10E5E0008093C00019828601750188249924A1E0D6
:10E5F0003A1651F03A1620F0B2E03B1661F409C029
:10E600000BBFF701779007C0C7010F9477FE782EF4
:10E6100002C0F7017080872D0F940DF22092C60082
:10E620008091C00086FFFCCF8091C0008064809301
:10E63000C000872D8052F401EF70F0708F3520F408
:10E64000E40DF51D708204C0E40DF51D8EE280839B
:10E650000894E11CF11C011D111D0894811C911CE2
:10E6600090E18916910409F0C2CF80E190E0A0E02A
:10E67000B0E0A80EB91ECA1EDB1E198AC2010F9493
:10E68000FAF10F94DCF16A94662009F072CF629679
:10E690000FB6F894DEBF0FBECDBFCF91DF911F91B3
:10E6A0000F91FF90EF90DF90CF90BF90AF909F9031
:10E6B0008F907F906F905F904F903F902F90089534
:10E6C0002F923F924F925F926F927F928F929F9282
:10E6D000AF92BF92CF92DF92EF92FF920F931F9370
:10E6E000DF93CF93CDB7DEB7CD53D1400FB6F894BB
:10E6F000DEBF0FBECDBF01E20EBF0FEF0DBF94B75F
:10E70000F894A89514BE80916000886180936000A1
:10E7100010926000789493FF05C0E0910002F091A0
:10E7200001021995279A2F9A8091C00082608093E8
:10E73000C00080E18093C40088E18093C1000000A4
:10E74000EE24FF24870144E0A42EB12CCC24DD2448
:10E7500024C0C5010197F1F70894E11CF11C011DCB
:10E76000111D21E2E2162EE4F20620E0020720E06D
:10E77000120718F031E0C32ED12CC801B70127ECE5
:10E780003BE140E050E00F9441FE611571058105C9
:10E79000910519F485B1805885B98091C00087FD35
:10E7A00003C0C114D104A9F2A6014F5F5F4FC25E3E
:10E7B000DE4F59834883CE51D140C25EDE4F8881FF
:10E7C0009981CE51D140019711F00D9410FEC05D9A
:10E7D000DE4F19821882C053D14060E0C15DDE4F28
:10E7E0001882CF52D14088249924C35DDE4F19820C
:10E7F0001882CD52D140C05EDE4F188219821A8233
:10E800001B82C052D140CE5CDE4F188219821A8220
:10E810001B82C253D140EE24FF2487010BBFF701B6
:10E8200007911691C45CDE4F19830883CC53D14005
:10E830000D940BFEC25EDE4F28813981CE51D1404E
:10E840002130310509F52091C600C25EDE4F1982E4
:10E850001882CE51D14022C02F5F3F4F4F4F5F4FA4
:10E86000213082E138078AE7480780E0580780F0C6
:10E87000C45CDE4FE881F981CC53D140EF5FFF4F9C
:10E8800019F0EE27FF27099420E030E040E050E047
:10E890008091C00087FFE0CF2091C600C35DDE4FAE
:10E8A00048815981CD52D1404F5F5F4FC35DDE4FEC
:10E8B00059834883CD52D140213209F063C64A3092
:10E8C000510508F05FC60894811C911C53E0851621
:10E8D000910409F059C600E010E018C081E280936D
:10E8E000C6008091C00086FFFCCF8091C00080648C
:10E8F0008093C0002F5F3F4F2931310579F70F9486
:10E90000DCF10F5F1F4F0530110519F020E030E0FA
:10E91000E5CF10920A0210920B0210920C02109294
:10E920000D02109206021092070210920802109235
:10E930000902109202021092030210920402109235
:10E9400005028FEE90EE60E00F94F5F180E191EE1C
:10E9500060E00F94C2F18091C00087FFFCCF9091DE
:10E96000C600903608F09F759032B8F09093C600BC
:10E970008091C00086FFFCCF8091C00080648093AE
:10E98000C000A0E2A093C6008091C00086FFFCCF2B
:10E990008091C00080648093C000983409F4D7C18E
:10E9A0009934B8F4923409F459C1933458F490333B
:10E9B00019F1903308F4E3C59F33A1F1903409F0C5
:10E9C000DEC5BDC0953409F470C1963409F0D7C5D1
:10E9D00098C1923509F42BC2933538F49C3409F46C
:10E9E000F5C1913509F0CBC518C2963509F445C279
:10E9F000993509F0C4C567C483E792EE62E00F94CD
:10EA0000F5F110920602109207021092080210927D
:10EA1000090210920A0210920B0210920C0210923C
:10EA20000D0213C18FE792EE62E00F94F5F18FEEC5
:10EA300090EE60E00F94F5F181E291EE60E00F94CA
:10EA4000C2F187EB91EE60E00F94F5F180E391EE77
:10EA500060E00F94C2F184EE90EE60E00F94F5F167
:10EA60008FE391EE60E00F94C2F186E090E061E008
:10EA700070E00F9434F20F94DCF18DE591EE60E0DC
:10EA80000F94C2F189EC91EE60E00F94F5F18EE401
:10EA900091EE60E00F94C2F183EC91EE60E00F9490
:10EAA000F5F18CE691EE60E00F94C2F18EE10F94E7
:10EAB0000DF288E90F940DF281E00F940DF20F949E
:10EAC000DCF18BE791EE60E00F94C2F119E0E0E039
:10EAD000F0E010935700E4918E2F0F940DF20F94F5
:10EAE000DCF18AE891EE60E00F94C2F1E3E0F0E03F
:10EAF00010935700E4918E2F0F940DF20F94DCF1D8
:10EB000089E991EE60E00F94C2F1E2E0F0E0109349
:10EB10005700E4918E2F0F940DF20F94DCF188EAE8
:10EB200091EE60E00F94C2F1E1E0F0E01093570045
:10EB30001491812F0F940DF20F94DCF107CF8BE825
:10EB400092EE62E00F94F5F18BE492EE60E00F94A8
:10EB5000F5F10F94DCF100E010E019C0C8016F2D51
:10EB60000F947FFEFF2031F489E492EE60E00F9471
:10EB7000C2F10BC0F092C6008091C00086FFFCCFAE
:10EB80008091C00080648093C0000F5F1F4FC80158
:10EB900081519F41A0E0B0E0ABBFFC01F790BAE229
:10EBA000FB1621F0E2E000301E07C1F60F94DCF105
:10EBB0000F94DCF187E592EE60E00F94F5F10F948D
:10EBC000DCF1CC24DD2400E010E01EC0C8010F946D
:10EBD00077FEF82E882331F489E492EE60E00F94FA
:10EBE000C2F10BC08093C6008091C00086FFFCCFAD
:10EBF0008091C00080648093C000FE1419F00894D6
:10EC0000C11CD11C0F5F1F4FC80181519F41A0E063
:10EC1000B0E0ABBFFC01E790FAE2EF1621F022E092
:10EC20000030120799F60F94DCF10F94DCF182E6C4
:10EC300092EE60E00F94C2F1C60161E070E00F94C3
:10EC400034F20F94DCF10F94DCF110920202109276
:10EC50000302109204021092050278CE89E992EE26
:10EC600062E00F94F5F1279A2F9A16C02F9880E052
:10EC700090E0E0EDF7E03197F1F7019684369105E9
:10EC8000C1F72F9A80E090E0E0EDF7E03197F1F7DF
:10EC9000019684369105C1F78091C00087FFE6CFC9
:10ECA0008091C00087FFFCCF64C485EA92EE62E0E9
:10ECB0000F94F5F140910202509103026091040219
:10ECC0007091050281E020E10F9491F2809102029F
:10ECD00090910302A0910402B091050280509F4FD1
:10ECE000AF4FBF4F8093020290930302A0930402A0
:10ECF000B093050280509041A040B04008F426CE69
:10ED0000A4CF83EB92EE62E00F94F5F140910602FE
:10ED100050910702609108027091090280E020E1A1
:10ED20000F9491F28091060290910702A09108023F
:10ED3000B091090280509F4FAF4FBF4F80930602A2
:10ED400090930702A0930802B0930902FFCD80ECD4
:10ED500092EE62E00F94F5F183E792EE60E00F949B
:10ED6000F5F18FE792EE60E00F94F5F18BE892EE0B
:10ED700060E00F94F5F189E992EE60E00F94F5F10F
:10ED800085EA92EE60E00F94F5F183EB92EE60E09D
:10ED90000F94F5F180EC92EE60E00F94F5F187ECC2
:10EDA00092EE60E00F94F5F188ED92EE60E00F9442
:10EDB000F5F18FED92EE60E00F94F5F18AEE92EEB0
:10EDC00060E00F94F5F183E093EEBDCD87EC92EE19
:10EDD00062E00F94F5F181E40F947BF282E40F94EA
:10EDE0007BF283E40F947BF284E40F947BF285E45E
:10EDF0000F947BF286E40F947BF287E40F947BF20E
:10EE000088E40F947BF28AE40F947BF28BE40F94F6
:10EE10007BF28CE40F947BF299CD88ED92EE62E068
:10EE20000F94F5F1772473948824992409C48FED05
:10EE300092EE62E00F94F5F140910A0250910B02BC
:10EE400060910C0270910D0282E020E10F9491F22A
:10EE500080910A0290910B02A0910C02B0910D02D8
:10EE600080509F4FAF4FBF4F80930A0290930B0289
:10EE7000A0930C02B0930D0269CD8AEE92EE62E08F
:10EE80000F94F5F184EE90EE60E00F94F5F18FECC5
:10EE900091EE60E00F94F5F1662477244301CC5D98
:10EEA000DE4F19821882C452D140D401C301B695F5
:10EEB000A79597958795CA5DDE4F88839983AA8326
:10EEC000BB83C652D140CC5DDE4FA881B981C4520C
:10EED000D1401196CC5DDE4FB983A883C452D14096
:10EEE000CD0162E070E00F9434F2B0E2B093C6005E
:10EEF0008091C00086FFFCCF8091C0008064809329
:10EF0000C000EDE2E093C6008091C00086FFFCCF18
:10EF10008091C00080648093C000F0E2F093C6004E
:10EF20008091C00086FFFCCF8091C00080648093F8
:10EF3000C000CA5DDE4FE880F9800A811B81C6529D
:10EF4000D140BB27A12F902F8F2D0F940DF2CA5DBA
:10EF5000DE4F8881C652D1400F940DF2B0E2FB2EF5
:10EF6000F092C6008091C00086FFFCCF8091C00067
:10EF700080648093C0000DE30093C6008091C000C0
:10EF800086FFFCCF8091C00080648093C00010E2B7
:10EF90001093C6008091C00086FFFCCF8091C00016
:10EFA00080648093C0008BBEF3012791C65DDE4F65
:10EFB0002883CA52D140A22EBB24CC24DD2408943D
:10EFC000611C711C811C911C8BBEF3018791282E42
:10EFD0003324442455240894611C711C811C911C09
:10EFE0008BBEF3013791C55DDE4F3883CB52D140E4
:10EFF0000894611C711C811C911C8BBEF30147910C
:10F00000C45DDE4F4883CC52D140ADEFEA2EAFEF66
:10F01000FA2EAFEF0A2FAFEF1A2F6E0C7F1C801E57
:10F02000911E142D032DF22CEE24EA0CFB1C0C1D5A
:10F030001D1D0F940DF220E22093C6008091C000A8
:10F0400086FFFCCF8091C00080648093C000C65DC5
:10F05000DE4F8881CA52D1400F940DF230E23093D6
:10F06000C6008091C00086FFFCCF8091C000806404
:10F070008093C000C45DDE4F8881CC52D1400F9494
:10F080000DF240E24093C6008091C00086FFFCCFA5
:10F090008091C00080648093C000C55DDE4F888190
:10F0A000CB52D1400F940DF250E25093C6008091A4
:10F0B000C00086FFFCCF8091C00080648093C000B8
:10F0C0008FEFE8168FEFF80680E0080780E018075A
:10F0D00031F484E092EE60E00F94C2F1DFC0D80119
:10F0E000C7018070907CA070B0708050904CA040A0
:10F0F000B040D1F52FEF3FE340E050E0E222F322B1
:10F1000004231523CA5DDE4FA880B980CA80DB8046
:10F11000C652D140AE0CBF1CC01ED11EAA0CBB1CD7
:10F12000CC1CDD1C8EE092EE60E00F94C2F1BB2798
:10F13000A12F902F8F2D0F940DF28E2D0F940DF285
:10F1400030E23093C6008091C00086FFFCCF8091F2
:10F15000C00080648093C0004EE34093C60080915D
:10F16000C00086FFFCCF87C08EE09EEFA0E0B0E03D
:10F17000E822F9220A231B239CE0E91694E9F90608
:10F1800090E0090790E0190709F088C0C45DDE4FE0
:10F19000A881CC52D140EA2EFF2400E010E0102FCD
:10F1A0000F2DFE2CEE24C55DDE4FB881CB52D14031
:10F1B000EB0EF11C011D111DD601C501817090706F
:10F1C000A070B070DC0199278827E80EF91E0A1F8D
:10F1D0001B1F20EF30E040E050E0A222B322C42207
:10F1E000D52241E1AA0CBB1CCC1CDD1C4A95D1F7F1
:10F1F000EA0CFB1C0C1D1D1D81E090E0A0E0B0E0BE
:10F20000282239224A225B2235E1220C331C441C7D
:10F21000551C3A95D1F7E20CF31C041D151D57013E
:10F220006801AA0CBB1CCC1CDD1C85E192EE60E0E1
:10F230000F94C2F1C801AA27BB270F940DF2BB2778
:10F24000A12F902F8F2D0F940DF28E2D0F940DF274
:10F2500090E29093C6008091C00086FFFCCF809121
:10F26000C00080648093C000AEE3A093C60080918C
:10F27000C00086FFFCCF8091C00080648093C000F6
:10F28000C601AA27BB270F940DF2BB27AD2D9C2DDD
:10F290008B2D0F940DF28A2D0F940DF20F94DCF14B
:10F2A000CC5DDE4FE881F981C452D140F99709F471
:10F2B0004DCBF4E0EF2EF12C012D112D6E0C7F1CA7
:10F2C000801E911EF2CD83E093EE62E00F94F5F183
:10F2D0008AE192EE60E00F94C2F18091C00087FF56
:10F2E000FCCF1091C6001F751093C6008091C0001E
:10F2F00086FFFCCF8091C00080648093C0000F9493
:10F30000DCF1812F81548A3108F036C1163409F4BA
:10F3100095C0173490F4133409F44EC0143430F40B
:10F320001134F1F0123409F01DC130C0143409F465
:10F3300059C0153409F016C16BC01A3409F4C4C0A1
:10F340001B3438F4173409F48FC0183409F00AC19B
:10F35000A1C01B3409F4D2C01C3409F003C1E8C0B9
:10F360008FEF81B90DC082B1809582B980E090E0C5
:10F37000E0EDF7E03197F1F70196883C9105C1F790
:10F380008091C00087FFEFCF12B8EFC08FEF84B934
:10F390000DC085B1809585B980E090E0E0EDF7E0A3
:10F3A0003197F1F70196883C9105C1F78091C00033
:10F3B00087FFEFCF15B8D9C08FEF87B90DC088B1DF
:10F3C000809588B980E090E0E0EDF7E03197F1F7C3
:10F3D0000196883C9105C1F78091C00087FFEFCF6F
:10F3E00018B8C3C08FEF8AB90DC08BB180958BB9A7
:10F3F00080E090E0E0EDF7E03197F1F70196883C8E
:10F400009105C1F78091C00087FFEFCF1BB8ADC059
:10F410008FEF8DB90DC08EB180958EB980E090E0F0
:10F42000E0EDF7E03197F1F70196883C9105C1F7DF
:10F430008091C00087FFEFCF1EB897C08FEF80BBD1
:10F440000DC081B3809581BB80E090E0E0EDF7E0F6
:10F450003197F1F70196883C9105C1F78091C00082
:10F4600087FFEFCF11BA81C08FEF83BB0DC084B38C
:10F47000809584BB80E090E0E0EDF7E03197F1F714
:10F480000196883C9105C1F78091C00087FFEFCFBE
:10F4900014BA6BC08FEF809301010FC080910201FD
:10F4A00080958093020180E090E0E0EDF7E03197F5
:10F4B000F1F70196883C9105C1F78091C00087FF64
:10F4C000EDCF1092020151C08FEF809304010FC065
:10F4D0008091050180958093050180E090E0E0ED4A
:10F4E000F7E03197F1F70196883C9105C1F78091DB
:10F4F000C00087FFEDCF1092050137C08FEF8093DA
:10F5000007010FC08091080180958093080180E079
:10F5100090E0E0EDF7E03197F1F70196883C910536
:10F52000C1F78091C00087FFEDCF109208011DC088
:10F530008FEF80930A010FC080910B01809580931B
:10F540000B0180E090E0E0EDF7E03197F1F70196F4
:10F55000883C9105C1F78091C00087FFEDCF1092E4
:10F560000B0103C085E292EEEEC98091C00087FFD7
:10F57000FCCF8091C600EAC988E392EEE4C98CE131
:10F5800091EEE1C988249924933011F1943028F444
:10F59000913089F09230B8F408C0953061F195301F
:10F5A000F0F0963009F048C043C02B3109F042C951
:10F5B00091E06BE13FC96227C15DDE4F2883CF52E6
:10F5C000D14092E037C9B22FA0E0622793E032C960
:10F5D000822F90E0A82BB92B622794E02BC92E3004
:10F5E00009F039C3622795E0C05DDE4F19821882A9
:10F5F000C053D1401FC9E1E0F0E0EC0FFD1FC05D3A
:10F60000DE4F08811981C053D140E00FF11F2083E4
:10F610000F5F1F4FC05DDE4F19830883C053D14079
:10F6200062270A171B0709F005C9D80196E002C92D
:10F63000261709F010C303C0973009F0FBC87724E0
:10F640009981933109F412C19431C8F4963009F4C8
:10F65000D8C0973050F4923009F406C1933009F4C1
:10F660006DC0913009F059C253C0913109F477C08F
:10F67000923108F0BBC0903109F04FC2F5C098310B
:10F6800009F487C0993150F4953109F4EFC09531F0
:10F6900008F4C6C1963109F040C2C2C19A3109F4DA
:10F6A0006CC09A3108F491C09B3109F45BC09D3164
:10F6B00009F033C29D81903359F48F81882311F46E
:10F6C0009EE11CC0813011F091E018C098E916C08D
:10F6D000892F807591F0903539F4E0E0F0E089E011
:10F6E0008093570094910AC0983539F4E3E0F0E034
:10F6F00089E080935700949101C090E01A821B82A8
:10F700008D818C831D829E831F8227E030E009C299
:10F710001A8288E08B8381E48C8386E58D8382E581
:10F720008E8389E48F8383E5888780E589878FE5E9
:10F730008A8782E38B872BE030E0F3C18A818139AD
:10F7400041F0823941F0803911F48FE005C080E04A
:10F7500003C082E001C08AE01A828B8344C0772410
:10F76000739482C08D81882311F48EE12CC0813086
:10F7700011F081E028C088E926C01A82E1E0F0E0BB
:10F7800089E08093570084918B831C8224E030E0D1
:10F79000C8C18B81803589F48C81883039F4E2E0EE
:10F7A000F0E089E08093570084910DC0E0E0F0E044
:10F7B00089E080935700849106C0E3E0F0E089E09F
:10F7C0008093570084911A82DFCF8D81836C99E0FA
:10F7D000E1E0F0E0082E90935700E89507B600FCB2
:10F7E000FDCF1A821B8223E030E09BC180EC8A832C
:10F7F000CE5CDE4F188219821A821B82C253D1401E
:10F800008EC18A8190E0A0E0B0E0582F44273327D2
:10F8100022278B8190E0A0E0B0E0DC0199278827C7
:10F82000282B392B4A2B5B2B8D8190E0A0E0B0E098
:10F83000282B392B4A2B5B2B8C8190E0A0E0B0E089
:10F84000BA2FA92F982F8827282B392B4A2B5B2BCF
:10F85000220F331F441F551FC05EDE4F288339839C
:10F860004A835B83C052D1401A8259C13A81C95C34
:10F87000DE4F3883C753D140CA5CDE4F1882C6536F
:10F88000D1408B81C82EDD24CA5CDE4F488159816E
:10F89000C653D140C42AD52A933109F082C0CE5C28
:10F8A000DE4F88819981AA81BB81C253D1408050AB
:10F8B000904CA340B04030F583E0CE5CDE4FE88052
:10F8C000F9800A811B81C253D140F70100935B008C
:10F8D00080935700E89507B600FCFDCFCE5CDE4F65
:10F8E000088119812A813B81C253D14000501F4FAA
:10F8F0002F4F3F4FCE5CDE4F088319832A833B8313
:10F90000C253D140C05EDE4F488159816A817B81FC
:10F91000C052D140DE011B9631E08C9111962C91A2
:10F9200011971296C75CDE4F2883C953D140C85C3B
:10F93000DE4F1882C853D14090E0C85CDE4FE881AA
:10F94000F981C853D1408E2B9F2B0C01FA01609393
:10F950005B0030935700E89511244E5F5F4F6F4F67
:10F960007F4F0EEFE02E0FEFF02ECE0CDF1CC114F8
:10F97000D10499F685E0C05EDE4F088119812A81A5
:10F980003B81C052D140F80120935B008093570027
:10F99000E89507B600FCFDCF81E180935700E8951C
:10F9A00035C0C05EDE4F88819981AA81BB81C0527B
:10F9B000D140B695A795979587957C018601ABE0D8
:10F9C000AA2EB12CAC0EBD1E0BC0D5016D915D01F0
:10F9D000C7010F947FFE0894E11CF11C01501040F8
:10F9E0000115110591F7A60160E070E0440F551F65
:10F9F000661F771FC05EDE4FE880F9800A811B8199
:10FA0000C052D1404E0D5F1D601F711F1A82C05E33
:10FA1000DE4F488359836A837B83C052D1407FC0C5
:10FA2000FA80C55CDE4FF882CB53D140C65CDE4F16
:10FA30001882CA53D1408B81C82EDD24C65CDE4FAC
:10FA400008811981CA53D140C02AD12A1A828981DA
:10FA5000BE016D5F7F4F843121F59601C05EDE4FA0
:10FA6000E880F9800A811B81C052D1400BBFF701A9
:10FA700087919691DB018C9311969C936E5F7F4FDB
:10FA8000D801C7010296A11DB11DC05EDE4F88835B
:10FA90009983AA83BB83C052D14022503040F1F6F3
:10FAA00036C0C05EDE4F288139814A815B81C052F9
:10FAB000D1400894C108D108760100E010E0089414
:10FAC000C11CD11C0894E11CF11C011D111DE20E8A
:10FAD000F31E041F151F21BDBB27A52F942F832FB5
:10FAE00082BD2F5F3F4F4F4F5F4FF89A80B5DB01CC
:10FAF0008D93BD012E153F054007510761F7C05E8C
:10FB0000DE4F288339834A835B83C052D1409601FC
:10FB10002D5F3F4FFB01108204C080EC8A8322E0FE
:10FB200030E08BE18093C6008091C00086FFFCCF5F
:10FB30008091C00080648093C000C15DDE4FF88179
:10FB4000CF52D140F093C6008091C00086FFFCCF19
:10FB50008091C00080648093C000432F3093C60022
:10FB60008091C00086FFFCCF8091C00080648093AC
:10FB7000C000922F2093C6008091C00086FFFCCF6A
:10FB80008091C00080648093C0008EE08093C600A6
:10FB90008091C00086FFFCCF8091C000806480937C
:10FBA000C00065E1C15DDE4FE880CF52D1406E25D7
:10FBB00069276427FE01319610C090819093C6009A
:10FBC0008091C00086FFFCCF31968091C000806498
:10FBD0008093C0006927215030402115310569F715
:10FBE0006093C6008091C00086FFFCCF8091C0006A
:10FBF00080648093C00085B1805885B9772081F4F6
:10FC0000C15DDE4F0881CF52D1400F5FC15DDE4F35
:10FC10000883CF52D14090E0A0E0B0E00D941AF4F8
:10FC200027982F9880E090E020ED37E0F901319798
:10FC3000F1F7019684369105C9F700008091C00064
:10FC40008D7F8093C00081E180935700E895EE2777
:10FC5000FF270994FFCF90E00D941AF497FB092E2B
:10FC600007260AD077FD04D02ED006D000201AF443
:10FC7000709561957F4F0895F6F7909581959F4F08
:10FC80000895A1E21A2EAA1BBB1BFD010DC0AA1FDD
:10FC9000BB1FEE1FFF1FA217B307E407F50720F0F5
:10FCA000A21BB30BE40BF50B661F771F881F991F70
:10FCB0001A9469F760957095809590959B01AC01B9
:10FCC000BD01CF010895AA1BBB1B51E107C0AA1FAC
:10FCD000BB1FA617B70710F0A61BB70B881F991FED
:10FCE0005A95A9F780959095BC01CD010895F99991
:10FCF000FECF92BD81BDF89A992780B50895262F31
:10FD0000F999FECF1FBA92BD81BD20BD0FB6F89400
:0EFD1000FA9AF99A0FBE01960895F894FFCF63
:040000033000E000E9
:00000001FF